:100000000C945C100C9484100C9484100C94841048
:100010000C9484100C9484100C9484100C94841010
:100020000C9484100C9484100C9443130C94B5130A
:100030000C9484100C9484100C9484100C948410F0
:100040000C9484100C9484100C9484100C948410E0
:100050000C9484100C9484100C9484100C948717C6
:100060000C9484100C9484100C9484100C948410C0
:100070000C9484100C9484100C9484100C948410B0
:100080000C94D1170C9484100C9484100C9484104C
:100090000C9484100C9484100C9484100C94841090
:1000A0000C9484100C9484100C94841040269F2689
:1000B000892733288E2A8E2A842B892B792C7B2C16
:1000C0007D2C822C872C872C872C872C902C902C95
:1000D000902C902C422A422A422A422A402AFD1B76
:1000E000031CDF1BEE1B1F1C1F1C091C0F1C151CF7
:1000F0000E02111A07040C0008090D031B15060E49
:100100000201171A041C150008090D030B060E0046
:10011000020406181A150C010307090B0D0E0E0731
:1001200008090D000102131A0B0C1415060E00012C
:1001300002031415060708191A0B0C0DD5F08D14BF
:10014000A1C881CFD9F1AF2000072200A393956504
:10015000091180AAAAAA140000005254D453001016
:1001600000B20A8A320002000303000300000A10F2
:1001700080900028607470FAD8DD00010203010548
:1001800006040001071B00212127E9292700A9A552
:10019000A598000080A8A4A518000000020404038C
:1001A00000000C107C54545482016D6D6D01827CF2
:1001B0000000000000010101010100000619515179
:1001C000535141579555558A0000C9AA2AC91C08A0
:1001D0000100010000000910D805FDFFFF76FC8832
:1001E000040005050707030100010538110A0E1F69
:1001F000042040C0E08002010103004428387C1044
:1002000080000080000805070F02885070F8200960
:10021000332C664707074747666CCFEEEEEE2EEEAF
:10022000EEEE6F6E6E4E0E1E0E4E4E6E9737777759
:1002300077777737978F8787878787A7A7AFE36316
:100240002383C3E36B6BCB02060607070104060694
:10025000154000004428387C10000000FE0000A873
:100260006C6E6E0E4E4C680000408080C000000036
:1002700000FF0000BB393D191A1A1C8C0000040253
:100280000307010000001F0000757575757F777703
:1002900073384C142C94C8D0C4D1802A000037275E
:1002A00027070F272737001C366F6D7B321E0D077F
:1002B000000000286CEEEEEEEE6C2800002040C03E
:1002C000E080000000FE0000081C1C0C2E2E266F93
:1002D00000000201010300000000FF0000B7A7A713
:1002E000878FA7A7B7000022141C3E080000007FDC
:1002F0000000737B3B3B0B3B3B1B094044285428CD
:10030000386C1000FC22142A141C3608003F58CC0C
:10031000CECECECECECC58101859595D5D5DDCDE08
:100320006E6E4E0E1E0E4E4E6E67F777371737778E
:10033000773744285428386C1000FC22142A141CE7
:100340003608003F0940C080848884008080C0F265
:10035000767676767F7773F3BE9C1C1C1C9C9C9CE7
:100360003ECD58181E9FC7D1D99BE6CCCCCFCFC36A
:10037000C8CCEDB3999D9D9D9D9D99B31C89CBCB18
:10038000EBEBF3793C030323132102020203094040
:100390008080A2141CBE8880008BD9D8DEDFC7D134
:1003A000D9DB85C9E9E9E9E9E9C99D85CCE8E0E05F
:1003B000E8E8CC8DE5ECE8E0E0E8E8ECED76361432
:1003C000C0E1F0343466B99B8BE3F3781A9BB30039
:1003D000014529397C1101010940C08080858000D8
:1003E0008080C0F2767676767F7773F3BE9C1C1C95
:1003F0001C9C9C9C3ECD58181E9FC7D1D99BE6CC17
:10040000CCCFCFC3C8CCEDB3999D9D9D9D9D99B395
:100410001C89CBCBEBEBF3793C030303A301020272
:1004200002030828000029A9A92F09290304979489
:10043000B453101000001CA0A0180438000033486A
:10044000483300000000E151936500000616C728FC
:1004500028C6010E4C52D24C00003814241900005A
:100460001322000000FC00FE0101FDA955FD010161
:10047000FE00000000C03008043261E0C0C1E0F1BD
:10048000F9800003040830C00F30408030181F0F7F
:100490000F1F3F7F0703038340300F000000FC0164
:1004A000FE0000FE54AAFE0000FF00000000000055
:1004B000000000010202020202020202010000002A
:1004C00000E4020200750506007D060800750504BB
:1004D000000080DC00090093000A0083000600AFE2
:1004E000000A000080AF00030026010400B80104E8
:1004F00000A50001000080AF001600AF001600AF9D
:1005000000160000800C0E00A8FC020252520A42A3
:1005100002FC00000A17081809190A180807000C3D
:100520000E00A8FC0242E2F2FAB202FC00000A1736
:10053000081808190B190807000C0E00A8FC02BACD
:10054000BAAAAA1202FC00000A17081B0B1A0A1901
:10055000080700FFFF0001010100FF000101010089
:10056000FFFFFFFFFF0001010100FF00010101008B
:10057000FFFFFF03080007020700070080E8FCFEFA
:10058000FC5CFCFCF8FCFCFCFCFEFCE0400C1F3FAF
:100590001F0F1F1E1F1F7FFFFFFFFF7F1F0C00008D
:1005A0000000000000000000000001030100000046
:1005B0000080C0E0C080C0C0C0C0F0F8FCFEFCF00D
:1005C000C08000010FBFFFFFFFD3FFFFFFFFFFFF52
:1005D000FFFFFF39100000000103010101010001CC
:1005E000010101030100001213000080E8FC18085B
:1005F00048E8E0C8CCC8E0ECC04000000C1D0F0586
:100600000C0C0E0E067DE6FD76000C0000000000CE
:1006100000000000000000000001000000000000D9
:1006200080C080008080808000F038FC70008000F6
:100630000000010DBFFDC18193BB3B9D9B9D3BB85D
:10064000191000000000000100000000000001007F
:10065000000100000000070E0700FFFEFF550469BF
:100660000200000D005504690000000D00550469EA
:1006700000000001001704AB01000001001704D5C1
:1006800000000001001704D50000000100DC038118
:100690000200000100DC03D50000000100A4031CDF
:1006A0000100000100A403460000006C00A4032226
:1006B0000000006C00A403220000006C00A40322D0
:1006C000000000480070031C0100000100E4021C4F
:1006D000010000010070031C01000001003F031C29
:1006E000010000010093021C01000001003F031CF7
:1006F0000100000100E4028102000001006E0246D8
:1007000000000001000B024600000001006E0246DE
:1007100000000001002A027B030080E402F20100D5
:10072000009000E402220000004800E402220000E1
:10073000004800E402B10000006C00E4026900001F
:10074000002400E4024600000048003F0369000066
:10075000002400A403690000002400DC030A040054
:1007600000FB00DC03690000002400550446000083
:10077000004800DD0446000000480075055D0200E9
:1007800000240075052200000048007505220000C5
:10079000004800750522000000B3005504B10000B8
:1007A0000024007505460000004800C805750000DB
:1007B0000018007D06690000002400C805690600D5
:1007C00080570016005700160057001600008007DB
:1007D000050E11131519110E0E0404040406041F4E
:1007E00001010E10110E0E11100C10110E08081F31
:1007F000090A0C080E1110100F011F0E11110F0124
:10080000021C0102040810101F0E11110E11110E0E
:100810000708101E11110E072991111515951B11AE
:10082000F301E111E100013C4138047900008E44FC
:10083000444486000413141434D300000101010160
:1008400000000000002C015D0152005D0152005DBE
:100850000152005D0152000000030072015200725B
:100860000152007201520072015200000003008820
:100870000152008801520088015200880152000094
:100880000003009F0152009F0152009F0152009FF0
:1008900001520000000300B8015200B8015200B834
:1008A000015200B801520000000300D2015200D2F0
:1008B000015200D2015200D201520000000300EEAA
:1008C000015200EE015200EE015200EE0152000012
:1008D0000003000B0252000B0252000B0252000BED
:1008E00002520000000300008003077D3A14030752
:1008F000143A7D0603070202020302070101020403
:1009000003030404070403081300722A4A32020294
:100910000000E2559565000000000202020202029A
:10092000000A210002024A52D24E000000000000DC
:10093000B814A4190000000000003B330833000085
:1009400000007C82AABAAABA827C000000000000E3
:1009500000000000001040FFFBFDDFF7FE55AA413C
:100960003E800000000000FFFFFE77BFBF6A558A8F
:1009700070010000000000FFF7C6D18C0081014427
:1009800084020000000000FFFDBBFD8710AACE001E
:10099000E1000000000000BF2DBB2DA730AA01041C
:1009A0002200000000000077F0D75037D017C000B9
:1009B00010000000000000FFFD4AB54A8130000031
:1009C00000000000000000FB7E956A900FC0000050
:1009D00000000000000000104000000000000000C7
:1009E0000000803E41AA55EEFF000000000000001C
:1009F000006001708A556AFDFF0000000000008160
:100A00000000BD81BD81BD81BD000000000000E887
:100A10000470AA013CF6BBF6FF00000000000030A5
:100A2000400E2A013C777BF7FF000000000008C45D
:100A30002450D0A0A6D1ECFDFF00000000003081C2
:100A40004AB56ADF7FFDEFFFFF0000000000C00F26
:100A5000916A957FFFDFF7FBFF063828C4C48C88B6
:100A60005087020614043E756D756566C6F72266EA
:100A70004444CC313276B62673ED4B735569590E2A
:100A80000C0C1C246E0638E746C684A4BFFE246DF9
:100A9000CE48DDF12260C140C3ED49715162438E01
:100AA0000C0C0848FEF323634252FF7D8A18701035
:100AB000F01B3D00AA540AF418102850A890A890E2
:100AC000A890A890A890AA9482F4101020C00002C8
:100AD00005803FA020A09088880848A848A888A83A
:100AE00088A888A8888808080F00AA5502FD020176
:100AF0000000F80F0055FE030100F808080808F888
:100B0000000102FC00000100030408105091511183
:100B1000D15150505091911151915110080403003E
:100B200055AA05F2141010254A55407F00000078A0
:100B3000505061614242040808F0000102805F9059
:100B4000109088A494043CA020A03C84542494A435
:100B5000848404040700AA5502FD02010000F80F76
:100B60002001FC050405FC01000F08F8000102FC4F
:100B700000000100030408101011111111111008D8
:100B800010111111111111100804035504A80000CF
:100B900000B0005504A80000005C013F03A8005508
:100BA00004A800DC030C067003A8000000B000706D
:100BB00003A80000005C017003A800E402A8007014
:100BC00003A800A403E200E402E200A403E2001789
:100BD00004E2003F03E2001704E2005504A800000D
:100BE00000B0005504A80000005C013F03A80055B8
:100BF00004A800DC030C067003A8000000B000701D
:100C000003A80000005C017003A800E402A80070C3
:100C100003A800A403E200E402E200A403E2001738
:100C200004E2003F03E200DD04E2007505CF08BAEC
:100C3000020604E402A8001003A8003F035F05A415
:100C4000035603000007001704A8005504A800DDA0
:100C500004A80075055F05C8055603000007004994
:100C60000755017D06A800C8055F05DD0456030091
:100C7000000700C80555017505A800550456030076
:100C80000007001704A800A403A8003F03A800BAA7
:100C9000020604E402A8001003A8003F035F05A4B5
:100CA000035603000007001704A8005504A800DD40
:100CB00004A80075055F05C8055603000007004934
:100CC0000755017D06A800C8055F05DD04AE023F9B
:100CD000035501C805A8007505A80055045F050067
:100CE00080001E3EFEFEFCF8F8FCFEFF3F1F0F00DA
:100CF00000003C3E3F3F1F0F07070FCFFFFF7C7CEC
:100D00007E0E000000000000000000000000000057
:100D1000000000000080C0FCFEFFFEFCF0C0C080B0
:100D2000C0E0F0E0000103077FFFFFFF7F1F070720
:100D300003070F1F0F01000000000001000000006A
:100D40000000000000000078F8F8F8F0E0C0C0E013
:100D5000E6FEFE7C7CFCE00000F0F9FFFF7F3F3FF9
:100D60007FFFFFF9F0E0000000000000000000003D
:100D70000000000101010100000000000000040E5D
:100D8000DEFEFFFEDE0E0400000000081C3E3E3FBB
:100D90003F7FFFFFFF7F3F3F3E3E1C0800000000FB
:100DA0000000000001000000000000000000E0FC66
:100DB0007C7CFEFEE6E0C0C0E0F0F8F8F8780000C9
:100DC00000E0F0F9FFFF7F3F3F7FFFFFF9F00000F9
:100DD000000001010101000000000000000000000F
:100DE00000E0F0E0C080C0C0F0FCFEFFFEFCC08070
:100DF00000010F1F0F070307071F7FFFFFFF7F077C
:100E000003010000000000000000000000010000DD
:100E10000000000000000F1F3FFFFEFCF8F8FCFE82
:100E2000FE3E1E00000E7E7C7CFFFFCF0F07070FEB
:100E30001F3F3F3E3C00000000000000000000009B
:100E40000000000000002070F8F8F8F8FCFEFFFE3B
:100E5000FCF8F8F8F870200000000041E1F7FFFF0F
:100E6000FFF7E1410000000000000000000000006A
:100E7000010000000000000000111100001C3CFCFB
:100E8000D8B070F8EC3E1E0E00000000001C1E1FC3
:100E90000D07030307074F6C30380C0000000000FB
:100EA0000000000000000000000000000000111120
:100EB00000008080FCEEFCF08080800000C0E0003C
:100EC00000000103037EEE7E1F0303030101070FF1
:100ED0000100000000000000000000000000000011
:100EE00000000011110070F0F060C08080C0C0E40C
:100EF0006C1838600000000070797F371B1D3F6F51
:100F0000F9F0E00000000000000000000000000018
:100F100000000000000000001111000000000004AB
:100F20000CCCFECC0C04000000000000081C1C16B9
:100F30001E1E7FE37F1E1E161C1C08000000000002
:100F4000000000000000000000000000001111007F
:100F5000006038186CE4C0C08080C060F0F07000A1
:100F600000000000E0F0F96F3F1D1B377F79700033
:100F70000000000000000000000000000000000071
:100F8000000011110000E0C00000808080F0FCEE45
:100F9000FC8080008000010F0701010303031F7E16
:100FA000EE7E0303010000000000000000000000CE
:100FB000000000000000001111000000000E1E3EA5
:100FC000ECF870B0D8FC3C1C000000000C38306C11
:100FD0004F07070303070D1F1E1C00000000000041
:100FE00000000000000000000000000011110020BF
:100FF0007070D0F0F0FC8EFCF0F0D070702000002B
:1010000000000000406067FF6760400000000000D3
:1010100000000000000000000000000000000000D0
:101020000080E0F0E0000A3F7F3F02000000000087
:1010300040F0F8F000127FFF7F0200000000004047
:10104000FCFEFC4017FFFFFF12000103010060FEE1
:10105000FFFE702037FFFFFF772200030703000029
:1010600005130080E00000000A3F020000000000BD
:101070000005130040F0000000127F020000000095
:10108000000005130040FC40000017FF12000000A4
:1010900001000006130060FE2020000037FF272219
:1010A000000000030000000E0EEEE0E00080DCDF38
:1010B000FF677373700000E0E0FBBB3FE7E7E70703
:1010C0000100C0DCDC1C0001030303000000000081
:1010D000000001010100000F1F6FF4E8FCDEFFFFBC
:1010E000E7F07F1F47E040C0E8FECF0F67F7FFFF44
:1010F0009F3D10C0E2F76201010103010000000101
:101100000000030303000000001C1C7CFCFCF8F83A
:10111000FC3C1C00000000000038383E1F0F0F0789
:101120000F1F1E1C00000000000000000000000057
:101130000000000000000070F0F0FEFEFEF8F0F885
:10114000F8FC7E3E0E000000F0FDFF7F7F3F1F0F8A
:101150001F3F3F7C70700000010101000000000093
:101160000000000000000010120004004000000019
:1011700080884200012000000080400011000240F1
:1011800002000000008008000000000100000000D4
:101190000000000000000000001012060F0460C0F4
:1011A000C88C9EC7C060100200400080C0C80607FF
:1011B0000363678F0D100000C06200000000010093
:1011C00000000000000000010000001012000000FC
:1011D000001070E0E0F030080000000000000000A7
:1011E00010080E07070307060800000000000000B3
:1011F00000000000000000000000000000101220AD
:1012000060E0E0FCF8F0E0F0F078380C000000005E
:1012100000E07D3F3F1F0F070F1F1C302000000024
:10122000000000000000000000000000000000605E
:10123000FEFFFE702037FFFFFF7722000307030049
:1012400000000080F0FCFEFFFEFCF0F0F070F0F813
:10125000F8F02002070F7FFFFFFFFFFF7F7F7A700C
:10126000FFFFFFFF20000000000103070301000053
:10127000000000000000000000A0FEFFFEFC70F077
:10128000F8F02002072FFFFFFFFF777FFF7F20008E
:1012900000000307030100000000007070FEFFFE65
:1012A000707277FFFFFF7700000307030070F8F804
:1012B000F870FCFEFFFEF0000070FFFFFF77FFFFFD
:1012C000FFFF7F070200000000000103070300008A
:1012D0000070F8F8F8F870F0F0F0FCFEFFFEFCF09B
:1012E00080000070FFFFFFFF707A7F7FFFFFFFFF2E
:1012F000FF7F0F0702000000000000000000010354
:101300000703010000000006130060FE202000001B
:1013100037FF272200000003000000121300000026
:101320000060FCFEFC606060202020F0F0200000E7
:1013300002070737FFFFFF3737322020207F7F204B
:101340000000000000000103010000000000000098
:101350000000000C1300000020FEFC202020F020E4
:101360000000020727FFFF272220FF2000000000C7
:101370000003010000000000000613002020FE60B2
:1013800000002227FF37000000000300000C1300BC
:1013900020F0202060FCFE2000000000207F2022A2
:1013A00037FDFF25070200000000000000010300D8
:1013B00000000012130020B0F0202020606060BC0C
:1013C00066BC600030000000206F7F202020323794
:1013D00035ED37ED35076702000000000000000022
:1013E00000000001030100000000000020B0F02018
:1013F0002020606060BC66BC600060000000206F60
:101400007F202020323735ED37ED350737020000D9
:1014100000000000000000000001030100000000C7
:1014200000080B0002020201000904000001020290
:101430000000052400100105240101010424020616
:10144000052406000107058103100040090401007E
:10145000020A00000007050202400000070583029F
:101460004000000403090412010002EF02014041A0
:1014700023368000010102030141726475696E6FB9
:10148000204C4C430041726475696E6F204C656F4F
:101490006E6172646F000C0E00A8FC0222226222B0
:1014A000E202FC00000A17081808180818080700CC
:1014B000EC0FB70F820F4D0F180FE30EAE0E790E23
:1014C000460E130EE00DAD0D7A0D470D140DE10C17
:1014D000FD11CB119911671137110711D710A71002
:1014E000B3138D13791353131B13531307138D1356
:1014F000D112AD129B127712411277122F12AD1238
:10150000FD11CB119911671137110711D710A710D1
:1015100093108210711060104E103F103010211087
:101520004C0B00C430CAA4D5E968F4EAF2EAF2AA86
:10153000F4E9E9F4E874EAF29A649801464080001C
:1015400084D2C258C898A0928ADAC852C490205057
:10155000B000000060108040A020A040804090902B
:1015600040A020A020A04080905040802000040691
:101570000304010707070706050707070307060710
:1015800007070707070706070304060607070705F7
:101590000607070702070705060705000200000403
:1015A00004020506070706070607060607020706E0
:1015B0000706070606050204030400208040509039
:1015C0008048A020A828A0409090409040A028A843
:1015D00040F294004040800084D2C2D8C898A092C3
:1015E0008ADAC8D2C49020F2005050505000F24025
:1015F000A828A0409040909040A024A424A4488013
:10160000905040A0000004030402050606070607E8
:101610000607060706060706070607070607060762
:101620000704060607050605070707070607070755
:101630000707050700050505050007060707060754
:10164000060706060706070607060706060502043C
:1016500003044C0B010E2912554B0B172B272B277C
:101660002A174B4B170B172B272F130D4231010055
:10167000006A50254F1B559FDF8A4F2FCF9BD51FE8
:101680005F0F030B111607CB37CF7FBF77BF7FBB31
:10169000BF7EAF7FBF7DBB7FB7BF5F2C99661B014D
:1016A000000000000000000000000000000000003A
:1016B000000000000000000000000000000000002A
:1016C000000102000202020000000002020100000C
:1016D00000030400010202020100010404010202ED
:1016E00002020201000405010000000001062912A7
:1016F000554B0B972B272B272B174B4B174B172B88
:10170000A7AF137F0055555555007F254F1F5F9F8D
:10171000DF8B4F2FCF9FDD1B5D0F030B1117074B87
:101720007F13AFA72B174B174B4B172BA7AB272BB1
:10173000970B4B5512290601000000000000000025
:101740000101010100000000000000000000000293
:10175000000000000000020000010200020202007E
:101760000000000202010000000000010200000071
:101770000000000000000000000000000000000069
:1017800000000000241608C43ACAA4D5E968D4D4DD
:10179000D4E9E8F679F5E9D6A8E914E21C01980045
:1017A0000000000000000000000080384728971566
:1017B0004B97972F554F574F572F1697AB25535C85
:1017C0006300100080826098E8EAD224C000000024
:1017D0000002000000000001010000010102000001
:1017E000001C200C121215292432092B091315088C
:1017F00007001E10C0243ACAA4D5E968F4EAF2EA48
:10180000F2AAF4E9E9F4E874EAF29A64980146402D
:1018100080000039472817156B97AF9E6F17972BDD
:101820002B2B964B0B374F5D2F2F5645390630002B
:1018300022168040460198649AF2EA74A834A96995
:10184000F4AAF2AAF2EA6AB26AF2EAF4A8E9D5A422
:10185000CA3AC40070863945DE3FFE57FBF3BBD75A
:101860009FD3BFFFFBFBBDFAFDDEECC8EBDDF9DB70
:101870007FFF2847388000081714092A25050A1514
:10188000131713170D0B020B1D0F25250B050B1539
:1018900013160906211800000B0DF80681A6B0B832
:1018A00018183060400708101707070303010100EC
:1018B000090CF00E41CED0C08080800304080B03D9
:1018C0000301010009102080000000000011040243
:1018D0000000008820000000091000000011040032
:1018E0000040008820000000000004010080F8FC97
:1018F0005EAFDEBC78F0C000001E7FFFAAD7AB57FA
:10190000AF5FFFFEF8E080EF7FBA55AB57AEDFFF69
:10191000F7E34007FFFDEA57EF77FFFF7F0703007C
:10192000000003070D06070301000000000D24005E
:101930000080F85CAEDCB870C0000000001E7FAA1A
:10194000D7AB57AF5FFEF8E00000806FBA55AB57DA
:10195000AEDFF7E340000007FDEA57EF77FF7F07B0
:101960000300000000000305020301000000000066
:1019700001020408102040804000040001500000D3
:1019800081400005FF0150000081400006FF002556
:101990001A0105FF01180318040001190000814015
:1019A0000006FF0040FF0028FF005000008180C0BB
:1019B000E0F0F8F8FCFCFCFEFEFEFFFFFFFFFFFF7F
:1019C000FFFFFFFFFFFFFFFFFFFFFFFFFFFEFEFE2A
:1019D000FCFCF8F0C0000103070F0F1F1F1F3F3F63
:1019E0003F7F7F7F7F7F7F7F7F7F7F7F7F7F7F7F47
:1019F0007F7F7F7F3F3F3F1F1F0F0701FFFFFFFFDD
:101A0000FFFFFFFFFF0101010101010101010910B9
:101A1000FEFDC3BBBBBBC7FFFF010101010101010B
:101A20000101271080C060B058A85CAC54AEFA8E9B
:101A3000F7959FF5979DF7959FFDFFFD7F7D3FDD16
:101A4000DFDD3FFEFEFE0CFC18F0C0000103060DBA
:101A50000A1D1A153A2F3877547C57745C77547CDA
:101A60005F7F5F7F5F7E5D7D5D7E3F3F3F181F0C28
:101A700007010910FF7F87BBBBBBC7FFFF00010148
:101A80000101010101010910FFFFC7BB3BBBC7FFFB
:101A9000FF0101010100010101010910FFFFC7BBA6
:101AA000BBBB877FFF01010101010101010009109A
:101AB000FFFFC7BBBBBBC7EFEF0101010101010184
:101AC00001010910FFFFC7BBBBBBC3FDFE01010144
:101AD0000101010101010910FFFFC7BBB8BBC7FF2E
:101AE000FF0101010101010101010000000000F0FE
:101AF000FEFFFFFEFCE00000000000000000000010
:101B00008000000010387CFEFEFFFFFFFFFFFFFF9C
:101B1000FFFEFEFE7C7C7C7CFEFFFFFFFE100000D3
:101B20000000001FFFFFFFFF7F0F0100000000000B
:101B3000000000010301000000000000000000019F
:101B40000100000000000000000000000000000094
:101B500000001A19000000000000F09E9EFCE0004A
:101B60000000000000000000000000000000001065
:101B7000387C547CFFBBBBBBBBFF7C7C7C7C383897
:101B8000383828D6D7FE10000000000000001FF3F0
:101B9000F37F0F01000000000000000000000100C2
:101BA0000000000000000000000000000000000035
:101BB0000000000000000000000000001111000003
:101BC0001C3CFCD8B070E8C422120E0000000000DB
:101BD0001C12110805030307074F6C30380C000076
:101BE00000000000000000000000000000000000F5
:101BF00000111100008080FC828CF0808080000049
:101C0000C0E00000000103037E82621F03030301A2
:101C100001070F01000000000000000000000000AC
:101C20000000000000001111007090102040808022
:101C3000C0C0E46C1838600000000070797E371B6B
:101C40001D2F478990E00000000000000000000008
:101C50000000000000000000000000111100000062
:101C60000000040CCCFECC0C0400000000000008B6
:101C700014141212127FE37F1212121414080000BF
:101C80000000000000000000000000000000000054
:101C9000111100006038186CE4C0C0808040201032
:101CA00090700000000000E09089472F1D1B377ED8
:101CB000797000000000000000000000000000003B
:101CC000000000000011110000E0C00000808080D2
:101CD000F08C82FC8080008000010F07010103036B
:101CE000031F62827E030301000000000000000069
:101CF00000000000000000000000111100000000C2
:101D00000E1222C4C870B0D8FC3C1C000000000CAD
:101D100038306C4F07070303050811121C00000040
:101D200000000000000000000000000000000011A2
:101D30001100205050909090FC8EFC90909050504C
:101D400020000000000000406067FF676040000066
:101D50000000000000000000000000000000000083
:101D600000000000060002F0D0000000010002F0B8
:101D7000D010000001010000F0240000020100006A
:101D800002240000020002F0204A0001010002F0DB
:101D9000205A000101050002F0D0000000010002FD
:101DA000F0D028000001010000F944000002000208
:101DB00000200001010100020020280101010500AE
:101DC00002F0D0000000010002F0D0280000010164
:101DD0000000F9440000020002002000010101009F
:101DE0000200202801010105030000000400000595
:101DF000030000F43E0000050002F0D000000001E6
:101E00000002F0D0230000010002F0D046000001E3
:101E100006000000F012000001000000F9000000C0
:101E2000010000000212000001020000E440000076
:101E300002020000F52C0000020200000640000033
:101E400002060003D6D0000000010003E6E0000017
:101E50000001010000EB14000002010000F9240061
:101E600000020100000734000002010000F94000F8
:101E70000002050002F0D0000000010002F0D028AE
:101E8000000001010000F9440000020002F02014EB
:101E90000001010002F0203C00010104000000F0FC
:101EA00012000001000000F9000000010000000223
:101EB00012000001030000003000000A05000100CC
:101EC00005000000010001000514000001000100F0
:101ED000EC00000101000100EC1400010100000011
:101EE000F92800010104000000E7000000010000E3
:101EF00000F9000000010000000B000000010200DA
:101F000000F51600000104000000F10000000100CF
:101F100000000300000001010000F11200000201B6
:101F2000000003120000020500010005000001018D
:101F3000000100EC14000001010000E73200000283
:101F4000010000F9320000020100000B3200000223
:101F500005010000E724000002000000F01200006C
:101F600001000000F9000000010000000212000062
:101F7000010100000B240000020200000005000027
:101F800000010000000018000001000000FB5000EC
:101F90000001000000F668000001D61AC21AAE1A4D
:101FA0009A1A861A721A221A0E1AFC19FC19FC19AE
:101FB000FC19FC19FC19AE19FC19FD11CB11991172
:101FC000671137110711D710A710521B521B521B54
:101FD000521B521B521B521B521BEA1AEA1AEA1AD4
:101FE000EA1AEA1AEA1AEA1AEA1AFD11CB11991149
:101FF000671137110711D710A7102F1DFA1CC51C28
:10200000901C5B1C261CF11BBC1B460E130EE00D26
:10201000AD0D7A0D470D140DE10CFD11CB11991189
:10202000671137110711D710A710F8FCFEFFFFFF4B
:10203000FFFFFFFFFEFC0F1F3F3F3F3F3F3F3F1FA4
:102040000F070F0F0F030400060007070707070716
:10205000070707070707070707070711060002001A
:10206000020002000200020002000200020005035A
:1020700001010301070505040E1F1F0A0F0F0F0FB3
:102080000F050406090909060E040406040F0204DC
:102090000906060904090604040F050607080701D6
:1020A0000F0609070106020204080F0609060906C1
:1020B00003040A090600163311241FBECFEFDAE02D
:1020C000DEBFCDBF11E0A0E0B1E0E4E2FFE602C078
:1020D00005900D92A03AB107D9F727E0A0EAB1E048
:1020E00001C01D92A738B207E1F710E1CCE5D0E1BD
:1020F00004C02197FE010E949536CB35D107C9F760
:102100000E942F240C9490370C940000FC018091C5
:10211000C701811103C08FEF9FEF08959FB7F89417
:1021200082E08093E9002091F20030E0121613065D
:1021300014F421E030E02115310559F0289884E6A7
:102140008093C6018091F10080838091F200882302
:1021500019F09FBFC90108958BE68093E800F9CF7D
:102160002FB7F89483E08093E9009091E800892FDD
:10217000807295FF04C09091F20080E4891B2FBF0C
:10218000089580910A0781110DC082E080930607AF
:1021900084E080930707109209071092080781E0F6
:1021A00080930A0786E097E00895CF93DF931F920C
:1021B000CDB7DEB76983DC01ED91FC910280F3813C
:1021C000E02D41E050E0BE016F5F7F4F09950F9019
:1021D000DF91CF91089583E08093E9008091F20030
:1021E000882319F08AE38093E80008950E94B010D4
:1021F00090E00895CF93DF931F92CDB7DEB7FC0137
:102200008485958597FD05C02FEF3FEF358724879F
:102210000BC0CE0101960E948610019719F48981A6
:1022200090E002C08FEF9FEF0F90DF91CF91089564
:102230000F931F93CF93DF931F92CDB7DEB78C011F
:10224000FC018485958597FF0EC0CE0101960E9402
:102250008610019719F4298130E002C02FEF3FEF7B
:10226000F80135872487F801848595850F90DF91E3
:10227000CF911F910F910895FC018485958597FD5D
:102280000BC09FB7F89482E08093E9008091F20040
:102290009FBF90E0019608959FB7F89482E08093E5
:1022A000E9008091F2009FBF90E008958F929F9285
:1022B000AF92BF92CF92DF92EF92FF920F931F9354
:1022C000CF93DF935C016B017A0180911A0188231F
:1022D00009F45BC08091C701882309F456C080913E
:1022E000C50180FF05C08091E00082608093E0001E
:1022F000E70110E00AEF83E0882E9AE3992E2097F9
:10230000D9F10E94B01081110AC0015009F43DC0FA
:1023100061E070E080E090E00E944D17F0CF282F40
:1023200030E0C217D3070CF48C2F4FB7F89480928B
:10233000E9009091E80095FF1DC0282F30E0C21BF6
:10234000D30BF601982F915020F081918093F100EA
:10235000FACFC20ED31E112319F09092E80009C0E3
:102360008091E80085FD06C09092E80011E020977A
:1023700009F010E04FBFC3CF1111C3CF5D9884E6C1
:10238000809305071E141F0444F081E090E0F501DE
:102390009383828380E090E001C0C701DF91CF91F9
:1023A0001F910F91FF90EF90DF90CF90BF90AF9073
:1023B0009F908F900895DF92EF92FF920F931F935B
:1023C000CF93DF93D82E8A017B01E40EF51EEB013B
:1023D000CE15DF0571F0D7FE03C0FE01849101C068
:1023E00088810E94F42321968111F2CF8FEF9FEF15
:1023F00001C0C801DF91CF911F910F91FF90EF9025
:10240000DF9008950F931F93CF93DF931F92CDB763
:10241000DEB782E0898342E450E061E274E180E863
:102420000E94DB110E94C110DC0112960D911C91DB
:1024300013970115110569F0D801ED91FC91028007
:10244000F381E02DBE016F5F7F4FC801099597FFB3
:1024500007C089810F90DF91CF911F910F9108954F
:10246000F80100851185E5CFCF93DF9300D000D030
:1024700000D0CDB7DEB7E5EEF6E080819181A28194
:10248000B381CD010196282F9A8389838481958118
:10249000A681B781CD010196482F9C838B838385CC
:1024A0009485FC0165917491FB0164916250FC017B
:1024B00085919491FC013196749172503A815C81BE
:1024C00080E090E026960FB6F894DEBF0FBECDBF39
:1024D000DF91CF9108950F931F93CF93DF93C82F70
:1024E000D62F042F10E0DC1750F04C2F50E021E0E5
:1024F000B8018AEF96E00E94F119CE5FF4CFDF9128
:10250000CF911F910F9108955F926F927F928F925A
:102510009F92AF92BF92CF92DF92EF92FF920F9372
:102520001F93CF93DF93EC018B017A01A901461B26
:10253000570B57FF03C0519541955109C7018C1B9B
:102540009D0B97FF03C09195819591095524539454
:102550008417950714F0512C0AC09E2D8F2D7901F8
:10256000292F382F9C2F8D2FE801092F182FEC16BB
:10257000FD0654F4902F812F8901292F382F9C2F8D
:102580008D2FE701E92EF82E37016C1A7D0A5901CB
:10259000A01AB10AB7FE03C0B194A194B1086301B7
:1025A00077FE03C08FEFC81AD80AD594C7940217D4
:1025B000130714F08FEF01C081E0882E880F99086F
:1025C000EC16FD06B4F021E0552019F0AE01B8017B
:1025D00002C0A801BE018AEF96E00E94F119CA1854
:1025E000DB08D7FE04C0080D191DC60CD71C2196A8
:1025F000E7CFDF91CF911F910F91FF90EF90DF9088
:10260000CF90BF90AF909F908F907F906F905F9092
:1026100008950F931F93CF93DF93042FD22F90E051
:1026200020E0AB01BC018BE790E00E94C419D530DB
:1026300030F48091C8059091C9050F9780F0C0E0F3
:1026400010E0CD1760F4B8016C0F711D9B0140E8DC
:1026500050E08BE790E00E948412CE5FF2CFDF91D2
:10266000CF911F910F910895E8ECF1E0A0E0B8E060
:1026700000800EBC8111012C1197A0FDFDCF0192AD
:10268000B9F70DB408951F920F920FB60F9211244F
:102690008F939F938091E1009091E100937F9093BD
:1026A000E10083FF0FC01092E90091E09093EB00EE
:1026B0001092EC0092E39093ED001092C70198E025
:1026C0009093F00082FF20C093E09093E9009091F6
:1026D000F200992319F09AE39093E800909105078E
:1026E000992339F09091050791509093050799230C
:1026F00089F19091C601992339F09091C6019150CA
:102700009093C601992341F184FF10C08091E200AB
:102710008E7E81608093E2008091E1008F7E8093C5
:10272000E1008091C5018E7E806111C080FF16C0DE
:102730008091E2008E7E80618093E2008091E100D2
:102740008E7E8093E1008091C5018E7E81608093B2
:10275000C50104C05D9ACDCF289AD6CF9F918F91A5
:102760000F900FBE0F901F9018951F920F920FB6EB
:102770000F921124CF92DF92EF92FF920F931F934B
:102780002F933F934F935F936F937F938F939F9379
:10279000AF93BF93EF93FF93CF93DF93CDB7DEB7A4
:1027A0006C97DEBFCDBF1092E9008091E80083FFF7
:1027B000EDC168E0CE0145960E94222482EF80930D
:1027C000E8008D8987FF05C09091E80090FFFCCF5D
:1027D00003C09EEF9093E800982F907609F0C6C052
:1027E0009E892F89188D91110CC0803829F4809111
:1027F000C4018093F10002C01092F1001092F10028
:1028000048C1422F50E0512B913051F4811141C108
:102810004130510509F03DC18091C4018D7F0BC04D
:10282000933061F4811135C14130510509F031C156
:102830008091C40182608093C4012BC1953041F422
:102840008091E80080FFFCCF20682093E30021C145
:10285000963009F05FC0EB8CFC8C1092E90010926E
:10286000C2011092C101123091F51092C001109274
:10287000BF010E94021299E0BE016F5F7F4FDB0132
:10288000E92F1D92EA95E9F799831A8391E09E83D7
:1028900090EA98879AEF99872091C1013091C201FF
:1028A000275F3F4F3C832B838D831092E90010926A
:1028B000C2011092C101F092C001E092BF0149E053
:1028C00050E080E00E94DB110E940212E2C0F09210
:1028D000C001E092BF010E94C110DC011296ED9090
:1028E000FC901397E114F10409F4C0C0D701ED91F5
:1028F000FC910480F581E02DBE016B5E7F4FC70126
:102900000995009719F00CF0C4C0C7C0F701E08426
:10291000F184E8CF973009F4C0C0983021F481E009
:102920008093F100B6C0993009F0B3C0837009F00C
:10293000B4C0EBE2F1E081E021E036E3908199233D
:1029400061F08093E9002093EB0091919093EC006B
:102950003093ED008F5F873089F78EE78093EA0030
:102960001092EA008F898093C70193C08B8D9C8D54
:102970001092E9001092C2011092C1019093C0011F
:102980008093BF01898D811156C08E899D89913AAE
:1029900059F4813209F081C047E050E063E171E011
:1029A00080E00E94DB1175C0913209F076C083325D
:1029B00089F4888D90E0982F88272F89822BA0E0BA
:1029C000B0E080930F0190931001A0931101B09398
:1029D00012015FC0803269F48091E80082FFFCCF71
:1029E00067E083E191E00E9422248BEF8093E8006E
:1029F00006C0823209F04DC08F8980931A01809100
:102A0000C301882319F0EEEFFAE002C0E0E0F8E03D
:102A10008091130190911401A0911501B0911601BC
:102A2000803B9440A105B10509F07BC080911A015B
:102A300080FF93C076C00E94C110DC0112960D91F8
:102A40001C9113970115110541F1D801ED91FC91ED
:102A50000190F081E02DBE016B5E7F4FC8010995AA
:102A6000811117C0F80100851185ECCF113009F4F0
:102A70004EC0133091F48F89882309F445C0823009
:102A800081F440E860E185E894E10E94D93288232E
:102A900021F08EEF8093E80079C081E28093EB0013
:102AA00075C0813029F440E86BE089E794E1EDCF0F
:102AB000833099F70E94C110DC011296ED90FC90D2
:102AC00013978E010F5F1F4F6801E114F10479F035
:102AD000D701ED91FC910680F781E02DB801C70187
:102AE0000995080F111DF701E084F184EECFD8019C
:102AF0001C92F60101900020E9F73197BF016C1993
:102B00007D0940E0C601C1CF63E674E102C067E61B
:102B100074E16115710509F2FB01449150E080E810
:102B200040CF0FB6F894A89580916000886180939B
:102B30006000109260000FBEA895EE3F2AE0F207F9
:102B400039F08091FE0A9091FF0A91838083A1CF92
:102B50001092FF0A1092FE0A9CCFEE3F8AE0F8071F
:102B600031F0808191819093FF0A8093FE0A87E77C
:102B700097E7918380839BE088E10FB6F894A8954E
:102B8000809360000FBE9093600083CF6C960FB669
:102B9000F894DEBF0FBECDBFDF91CF91FF91EF91D3
:102BA000BF91AF919F918F917F916F915F914F9165
:102BB0003F912F911F910F91FF90EF90DF90CF9059
:102BC0000F900FBE0F901F901895CF92DF92EF924B
:102BD000FF920F931F93CF93DF936C017A018B01C8
:102BE000C0E0D0E0CE15DF0589F0D8016D918D01F0
:102BF000D601ED91FC910190F081E02DC60109957F
:102C0000892B11F47E0102C02196ECCFC701DF9120
:102C1000CF911F910F91FF90EF90DF90CF9008958B
:102C200080917707E0917507F0917607882349F046
:102C3000CF010296909376078093750785919491C2
:102C40000895CF010296909376078093750780814F
:102C500091810895CF92DF92EF92FF920F931F938D
:102C6000CF93DF930E941016811520E8920761F43C
:102C7000809171008D7F8093710010929100469831
:102C800047981092A5018BC021E02093A5018130C7
:102C900020E8920751F48091730790917407909304
:102CA0007607809375070E94101697FD05C0209146
:102CB0007207222309F43FC02091710721113BC004
:102CC00021E020937807EC01DF77209769F481E019
:102CD0008093790746983FE9C32E3FE0D32EE12C3D
:102CE000F12CCAEFD0E014C08E0120E030E060E4A7
:102CF00072E48FE090E0A90198010E9460346901BC
:102D00007A0181E0C81AD108E108F1081092790728
:102D1000E091CA05F091CB050995811103C081E0CE
:102D200080937907809178078823B9F1809179079A
:102D3000811133C003C010927807C5CF46992DC0CA
:102D4000479A0E941016009771F09C01DE010E94C4
:102D5000B434DC01CB0129E0B595A795979587950B
:102D60002A95D1F703C08FEF9FEFDC0110929000FE
:102D70002AE020939100D0929900C092980080930D
:102D80007A0790937B07A0937C07B0937D0780918F
:102D9000710082608093710002C04798D2CFDF91AA
:102DA000CF911F910F91FF90EF90DF90CF900895FA
:102DB0008091A00108950895089580E090E008951D
:102DC0000E948B37CF93DF9300D000D0CDB7DEB712
:102DD000611571058105910579F09B01AC0169834D
:102DE0003A834B835C830E940E3429813A814B8164
:102DF0005C810E94603403C060E070E0CB010F9002
:102E00000F900F900F90DF91CF910895CF92DF92A6
:102E1000EF92FF920F931F93621773078407950732
:102E200084F489019A016B017C01C901B8016C1914
:102E30007D098E099F090E94E2166C0D7D1D8E1D75
:102E40009F1D1F910F91FF90EF90DF90CF900895FD
:102E50003FB7F89480917F0790918007A0918107F8
:102E6000B091820726B5A89B05C02F3F19F00196A7
:102E7000A11DB11D3FBFBA2FA92F982F8827820F00
:102E8000911DA11DB11DBC01CD0142E0660F771F50
:102E9000881F991F4A95D1F708958F929F92AF92FC
:102EA000BF92CF92DF92EF92FF926B017C010E9462
:102EB00028174B015C01C114D104E104F104F1F0C5
:102EC0000E942817DC01CB0188199909AA09BB09BE
:102ED000883E9340A105B10570F321E0C21AD108E4
:102EE000E108F10888EE880E83E0981EA11CB11C51
:102EF000C114D104E104F10419F7DDCFFF90EF9084
:102F0000DF90CF90BF90AF909F908F9008951F92C9
:102F10000F920FB60F9211242F933F938F939F938D
:102F2000AF93BF938091A1019091A201A091A301C1
:102F3000B091A40130917E0723E0230F2D3720F4B8
:102F40000196A11DB11D05C026E8230F0296A11D03
:102F5000B11D20937E078093A1019093A201A093BD
:102F6000A301B093A40180917F0790918007A09165
:102F70008107B09182070196A11DB11D80937F0743
:102F800090938007A0938107B0938207BF91AF9180
:102F90009F918F913F912F910F900FBE0F901F9097
:102FA00018951F920F920FB60F9211242F933F93F3
:102FB0004F935F936F937F938F939F93AF93BF9341
:102FC000EF93FF9380917A0790917B07A0917C0704
:102FD000B0917D07892B8A2B8B2B81F1809179070A
:102FE00081110BC098B180E4892788B98091780756
:102FF000882319F088B1805888B980917A07909118
:103000007B07A0917C07B0917D07181619061A0658
:103010001B06B4F480917A0790917B07A0917C07FE
:10302000B0917D070197A109B10980937A07909328
:103030007B07A0937C07B0937D0702C00E942A16ED
:10304000FF91EF91BF91AF919F918F917F916F9180
:103050005F914F913F912F910F900FBE0F901F9056
:1030600018959C01E1E7F0E090819D7F908381E0DD
:103070008093770730937607209375073093740712
:10308000209373070C942A162F923F924F925F92CF
:103090006F927F928F929F92AF92BF92CF92DF9268
:1030A000EF92FF920F931F93CF93DF9300D000D046
:1030B00000D0CDB7DEB7CD824115510509F43BC133
:1030C000FA0134913196E4914E5F5F4FA32EB12CFB
:1030D000211102C0EE2061F18E2E86948694869492
:1030E000912CA1E0B0E0FE2FF77011F4A0E0B0E069
:1030F0008A0E9B1EA89CD001A99CB00DB89CB00D57
:103100001124FD81F33019F4AA0FBB1F0AC0011569
:10311000110539F0EA9E4001EB9E900C1124080D38
:10312000191D2A9F70012B9FF00C11244E0D5F1D5D
:103130002D812F3F39F40115110511F021E001C057
:1031400022E02D837C01EA0CFB1C1E141F040CF0F2
:10315000F2C0803891050CF0EEC0DB01AE0FB11D5E
:103160001A161B060CF0E7C0603471050CF0E3C0C2
:103170004115510509F4DFC0F62FF7706F2EDB0102
:1031800077FD179623E0B595A7952A95E1F7FA2FD5
:1031900077FF04C0662011F0FFEFFA0F97FF05C01C
:1031A000AA27BB27A81BB90B02C0A0E0B0E020E80B
:1031B000E216F10424F020E8722E781A01C0732E72
:1031C0007A1A6F2F0F2E000C770BFF3F1CF4C62EC0
:1031D000C09401C0C12C992493942E2F277009F418
:1031E000912CE695E695E6959E0E690D711D693068
:1031F00071051CF0E8E09E2E9F1ADC2CDF0E6D2D71
:1032000020E86203800D911D11248A0F9B1F61E04D
:1032100070E0062C02C0660F771F0A94E2F72D813A
:10322000233011F0E1E001C0E2E0A718B108EA9D07
:10323000802C1124EE2EF12CC39EA00DB11D112463
:10324000EA9E9001EB9E300DFA9E300D11245A013A
:10325000A20EB31E0115110509F0A801D70111979F
:103260002A0F3B1F420F531FAFEFA69F9001A79F4E
:10327000300D1124290140945094F90DFE83282D1E
:1032800030E0E79D200D311D1124EE81DE1609F49A
:1032900052C0DC01A853BE4F4A018501C12CC7149E
:1032A00009F441C0F8013490369EF001379EF00DCC
:1032B0001124FA83E983E095F095FC83EB83FD818B
:1032C000F23019F45C824B8211C0ED81EB3F19F4AE
:1032D0001A8219820BC0F4013490369EF001379E99
:1032E000F00D1124E095F095FC83EB83D7FC06C02C
:1032F000FC91EB81EF23F981EF2BEC93662061F0D9
:10330000F6E0FD154CF0FD01E058FF4F20803C80B9
:1033100023203A80322830828E0C9F1C0E0D1F1DF8
:10332000C3941196BCCFD394A20EB31E420F531F69
:1033300080589F4FAACF26960FB6F894DEBF0FBED7
:10334000CDBFDF91CF911F910F91FF90EF90DF9054
:10335000CF90BF90AF909F908F907F906F905F9035
:103360004F903F902F900895CF92EF920F931F931D
:103370003AEFC32EE12C00E010E00E9444181F91A8
:103380000F91EF90CF900895CF92EF920F931F93EC
:1033900032E0C32EE12C00E010E00E9444181F919F
:1033A0000F91EF90CF900895CF92EF920F931F93CC
:1033B000F901202FCC24C3948F010E9444181F913F
:1033C0000F91EF90CF900895BC0180E090E00C94B5
:1033D0004D178FB18095807F669B88601C9B8460B1
:1033E000089560387105D0F440345105B8F4E0E731
:1033F000F9E180E1849FD001A0781124A60F4770E5
:10340000E40FF11D8491A853BE4F222319F06C9153
:10341000862B03C080956C9186238C930895CF9260
:10342000DF92EF92FF920F931F93CF93DF93EC0104
:103430008885882309F4EFC08E89882311F0815094
:103440008E8B8E898111E7C02B8D2111AAC0498DE9
:103450005A8DEF88F88CF7013296E40FF51F04912E
:10346000FA01EE0DFF1D849197012F5F3F4FFA0186
:10347000E20FF31F14919D89292F207FC22EE82F80
:1034800009F0E1959F70D92E09F01195013809F4E2
:1034900086C0083008F051C06889062E000C770BF2
:1034A0006E0F711DE7FD7A95072E000C880B990BA6
:1034B0000E94683520E030E040E852E40E94C434C5
:1034C00020E030E040E857E40E94F4350E943035B7
:1034D000688379838A839B836989062E000C770B26
:1034E000610F711D17FD7A95072E000C880B990B43
:1034F0000E94683520E030E040E052E40E94C4348D
:1035000020E030E040E857E40E94F4350E94303576
:103510006C837D838E839F838D85833019F486E051
:103520008E8701C00E87CC2009F468C0EE85D110CB
:103530006CC0F0E0E75AFE4F6BC0EC8F1D8F8E2FF2
:10354000EE0F990BAA0BBB0BDC019927882748814A
:1035500059816A817B81840F951FA61FB71F8883BD
:103560009983AA83BB83812F110F990BAA0BBB0BE5
:10357000DC01992788274C815D816E817F81840FD2
:10358000951FA61FB71F8C839D83AE83BF830150F9
:103590000B8F83E0E80EF11CF88EEF8A3CC0188692
:1035A0003AC08C8D082E000C990BAA0BBB0BDC01CA
:1035B00099278827488159816A817B81840F951FCB
:1035C000A61FB71F88839983AA83BB838D8D082E7E
:1035D000000C990BAA0BBB0BDC01992788274C81A7
:1035E0005D816E817F81840F951FA61FB71F8C831D
:1035F0009D83AE83BF8321502B8F0DC0DD2049F208
:10360000EE85F0E0EF5AFE4F03C0F0E0E75BFE4FBF
:1036100080818E87BECFDF91CF911F910F91FF9058
:10362000EF90DF90CF900895DC011B96ED91FC9117
:103630001C973E9685919491FC0184910895DC013C
:103640001B96ED91FC911C973C9685919491FC0101
:10365000849108950F931F93CF93DF9300D000D0F0
:1036600000D0CDB7DEB78C01FC0180819181A281B1
:10367000B381CD0101969A83898384819581A68146
:10368000B781CD0101969C838B83C8010E941F1BCB
:1036900082508D83C8010E94141B7EEF780F298110
:1036A0003A814B815C816D8180E090E026960FB677
:1036B000F894DEBF0FBECDBFDF91CF911F910F9168
:1036C0000895FC01108211821282138214821582E5
:1036D000168217821286118654874387138A128AAC
:1036E0006587108683E0848B138E86E08787089534
:1036F000EF920F93CF93DF93C0E0D0E0FE01E95546
:10370000FE4F8381843061F4628170E0E12C00E03F
:103710002CEE38E14DE259E1808191810E94D4196B
:103720002496C031D10551F7DF91CF910F91EF90E1
:103730000895EF920F93CF93DF93C0E0D0E0FE01A6
:10374000E955FE4F8381853061F4628170E0E12CA0
:1037500000E02CEE38E14DE259E1808191810E9438
:10376000D4192496C031D10551F7DF91CF910F9133
:10377000EF9008959F92AF92BF92CF92DF92EF9217
:10378000FF920F931F93CF93DF93982E97EAE92E22
:1037900091E0F92E29EAC22E21E0D22EE60187011E
:1037A00035E0A32EB12CE9814E2F50E04930510570
:1037B00008F045C0FA01E159FF4F0C94953680910D
:1037C000FD069091FE06B5010E946D36892BB9F178
:1037D000688170E020E048ED58E12CC08091FD0642
:1037E0009091FE06B5010E946D36892B41F16881EA
:1037F00070E020E044EC58E11DC0688170E020E0FA
:1038000040EB58E117C0688170E020E048E958E1DA
:1038100011C0688170E020E040E358E10BC068818E
:1038200070E020E042EF57E105C0688170E020E0E1
:1038300044E857E1F801808191810E94B4190C5F3E
:103840001F4FFFEFAF1ABF0A249629E0A216B1045A
:1038500009F0A9CF8091D505882379F06091D3052F
:10386000062E000C770B2091D40542E556E180919D
:10387000D1059091D2050E94C4198091D00588236A
:1038800079F06091CE05062E000C770B2091CF05C4
:1038900040E255E18091CC059091CD050E94C4197C
:1038A000911058C1CAEAD1E0B12C02EA10E0AA2472
:1038B000A39485E3982EF701808191810197863A40
:1038C000FFEF9F0724F0F70191838083D7C0F701B2
:1038D00011830083BB2019F03197808102C0809151
:1038E000B6018430B8F480917007882349F026E04F
:1038F00030E040E050E062E070E080E090E007C03F
:1039000029E030E040E050E060E070E0CB010E9450
:10391000061706C066E070E080E090E00E94E216C4
:10392000643088F06630E8F5688360E470E080E039
:1039300090E00E94E216DC01CB014097A109B10999
:10394000F60180839BC068838091D005882361F055
:103950002091CE05022E000C330B28513109032E85
:10396000000C440B550B04C028E230E040E050E06E
:103970008091D505882361F06091D305062E000C57
:10398000770B685E7F4F072E000C880B990B04C0E5
:1039900064E070E080E090E00E940617F60160832A
:1039A0006DC068838091D005882361F02091CE0599
:1039B000022E000C330B26523109032E000C440B4F
:1039C000550B04C020E330E040E050E08091D50585
:1039D000882361F06091D305062E000C770B685E9A
:1039E0007F4F072E000C880B990B04C06AEF7FEF06
:1039F0008FEF9FEF0E940617F60160838091D50537
:103A000081111CC062E370E080E090E00E94E21649
:103A1000A092D505DC01CB0188539F4FAF4FBF4F1C
:103A20009093D2058093D1051092D30562E070E0A7
:103A300080E090E00E94E2166093D4058091D0056A
:103A400081111CC062E370E080E090E00E94E21609
:103A5000A092D005DC01CB0188539F4FAF4FBF4FE1
:103A60009093CD058093CC059092CE0562E070E0F6
:103A700080E090E00E94E2166093CF05B394F4E0FA
:103A8000EF0EF11C24E0C20ED11C249684E0B81283
:103A900012CF8091D505882379F08091D10590913E
:103AA000D20501979093D2058093D105863A9F4F16
:103AB00004F51092D5051DC068E270E080E090E04A
:103AC0000E94E216672B682B692B99F481E08093A2
:103AD000D50582EA90E09093D2058093D1051092AB
:103AE000D30562E070E080E090E00E94E21660930F
:103AF000D4058091D005882379F08091CC059091F0
:103B0000CD0501979093CD058093CC05863A9F4FC4
:103B10000CF51092D0051EC068E270E080E090E0E5
:103B20000E94E216672B682B692BA1F481E0809339
:103B3000D00582EA90E09093CD058093CC0585E393
:103B40008093CE0562E070E080E090E00E94E21693
:103B50006093CF05DF91CF911F910F91FF90EF9070
:103B6000DF90CF90BF90AF909F9008956F927F921B
:103B70008F929F92AF92BF92CF92DF92EF920F936C
:103B80001F93CF93DF9300D000D0CDB7DEB78091E5
:103B9000C8059091C90501968F31910528F490933D
:103BA000C9058093C80504C01092C9051092C805C4
:103BB00080918607882319F0815080938607B09002
:103BC000F2061091F30658E7852E912CC12CD12CCA
:103BD00020E0A601B4018AEF96E00E94F1198FEF70
:103BE000C81AD80A90E4C916D10491F7EFEF8E1ADB
:103BF0009E0AF0E88F16910449F720E430E049E787
:103C000050E060E070E089E790E00E948412198241
:103C10001A821B821C82CE0101966C01FC014AE0D3
:103C2000842E912C24E0280F8B2D912FB4010E941B
:103C30006D368193B62E172F2E13F6CF1FE0F601A7
:103C400001916F01612F70E0E12C2CE730E241E837
:103C500050E28BE790E00E94D41915501B3F79F792
:103C60008091EE069091EF0697FD02C0292F01C0CA
:103C700020E04EE165E770E287E10E940913809140
:103C8000F5069091F60697FD02C0292F01C020E0AD
:103C900043E36EE670E28EE20E940913809186078C
:103CA000882309F468C01091F4068091E50690918C
:103CB000E606A091E706B091E806CD01BB2797FD87
:103CC000B095AB2F4091E9065091EA066091EB0662
:103CD0007091EC06AB01772757FD7095672F209107
:103CE0001B01473028F4222351F010921B0107C01A
:103CF0004B3228F0211103C021E020931B012091B9
:103D00001B01211102C023E101C02AEF55276A01DE
:103D1000C20ED11C27FDDA945C01BB24E12C00E02B
:103D20002AE430E24BE550E2B601C5010E94D41905
:103D3000113130F48091C8059091C9050F97D8F0E2
:103D4000612C712C812E912CF2E0CF0ED11C6814C5
:103D500079048CF4E12C00E022E430E245E450E206
:103D6000B601C5010E94D4198AE0680E711C92E068
:103D7000A90EB11CECCF0F900F900F900F90DF9118
:103D8000CF911F910F91EF90DF90CF90BF90AF90A8
:103D90009F908F907F906F9008952F923F924F92B7
:103DA0005F926F927F928F929F92AF92BF92CF92CB
:103DB000DF92EF92FF920F931F93CF93DF93CDB7D4
:103DC000DEB762970FB6F894DEBF0FBECDBF8A8B09
:103DD0001EE3212E16E0312E01E3802E06E0902E08
:103DE00089E396E09F878E87A7E4B6E0B98BA88B1E
:103DF000E0E4F6E0F987E887FA89F11105C0D1011E
:103E00008C91833029F41CC0F10180818330C1F48E
:103E1000C4010E940F1AC4010E942A1B29833A83FD
:103E20004B835C8329813A818B819C81AE85BF85E0
:103E30004C91442329F0A889B9894C91442399F1E4
:103E4000BEE12B0E311CEEE18E0E911C8E859F85FE
:103E50004E969F878E87A889B9895E96B98BA88B65
:103E6000E885F9857E96F987E887F2EF2F16F6E068
:103E70003F0611F662960FB6F894DEBF0FBECDBFB7
:103E8000DF91CF911F910F91FF90EF90DF90CF9036
:103E9000BF90AF909F908F907F906F905F904F906A
:103EA0003F902F900895A901460F511D1416150635
:103EB0003CF62038310524F69C01270F311D37FDD3
:103EC000BFCF803491050CF0BBCFF101F081FF83AF
:103ED000F33009F02BC14091E706F9E0AF2EA40EB4
:103EE0002091EB06A9E0BA2EB20EF40180819181F7
:103EF000A281B3818D01035E1F4FC480D580E6800F
:103F0000F7806701FF24D7FCF094EF2CC4010E94D6
:103F1000141B4A2DAA0C550B3A01601A710A2B2D5D
:103F2000BB0C330B869590E0C80ED91E29014C18A6
:103F30005D086114710409F43FC0C201550CAA0B5D
:103F4000BB0BDC01992788276C017D01FF0CCC0895
:103F5000DC2C76019C01AD016C2D7C2D8C2D9C2DD3
:103F600000E10E9472376301770CEE08FF088601BA
:103F7000FF24EE2457016801DD0CAA08BA2C650164
:103F8000AA86BB86CC86DD8657016801EA84FE2CB2
:103F90000E2D1E2D0E949D36F22FE32F8F2F9E2F68
:103FA000A42FB52FB7FF0CC0B095A0959095819523
:103FB0009F4FAF4FBF4F04C080E090E0A7EEB3E04B
:103FC00014145CF1161474F4AC01BD014150510994
:103FD0006109710947305A466105710508F059C0F9
:103FE00082E073C0662071F0AC01BD0141505109FF
:103FF0006109710947305A466105710508F058C0DA
:1040000096E071C08B5F9946A240B1098530964910
:10401000A44EB340C0F51F8267C0161474F4AC01FF
:10402000BD01415051096109710947305A46610586
:10403000710598F4B2E0BF8357C06620C9F0AC01A7
:10404000BD01415051096109710947305A46610566
:104050007105E8F5E6E0EF8347C0AC01BD014950CA
:104060005A4661097109413F5F4F61407105E0F1B6
:104070008B5F9946A240B10986309649A44EB34061
:1040800028F424E013C0A9E0AF832EC0F9E0FF8339
:104090002BC0AC01BD0149505A4661097109413F2D
:1040A0005F4F6140710508F0ADCF21E02F831CC048
:1040B000AC01BD0149505A4661097109413F5F4F4A
:1040C0006140710508F09ECF87E08F830DC0AC0181
:1040D000BD0149505A4661097109413F5F4F614036
:1040E000710530F695E09F83A885B9858C91BF81D5
:1040F000B930C9F0B817B9F09F81E92FF0E0482F27
:1041000050E09F01241B350BB9016D5F7F4F673075
:104110007105A8F512161306D4F1932F991F99274C
:10412000991F09F04CC0E885F9858083D4014D9131
:104130005D916D917C91139714964D905D906D906B
:104140007C901797EE85FF858081882309F478CECF
:10415000A889B9898C91811173CE5B01DD24B7FCEC
:10416000D094CD2C8501C4010E941F1B90E08A0DC4
:104170009B1D97FD65CE003811053CF161CEBF0156
:10418000685F7F4F641B750B161617068CF487301B
:1041900011F08F5F01C080E0482F50E09F01241B89
:1041A000350BB9016D5F7F4F6730710508F4B5CFEE
:1041B00028EF3FEF241B350B2E0F3F1FAECF882378
:1041C00011F08150B0CF87E0AECF2301772457FCA8
:1041D0007094672CD4011B964D915C911C97E885D7
:1041E000F9853197E081F0E03896CF01880F991F6B
:1041F000FA01E80FF91F25913491FC017097E40F43
:10420000F51F45915491E12C00E0B201C5010E94D7
:10421000D419F1018081833031F4A885B985EC91FE
:10422000E63009F06CC0F4018185928518161906F4
:1042300084F1805491099287818782858C3F59F05F
:1042400044F1181634F1992781950CF4909590E17A
:10425000980F8C5E05C0AE85BF851C9287E193E107
:10426000F40153854485E52FF42FE80FF11DE80F85
:10427000F11D25913491E52FF42FE90FF11DE90F80
:10428000F11D45915491E12C00E0B201C5010E945D
:10429000D419F40182899389181619060CF0D0CD2F
:1042A000923081F0933011F09130E9F4D4011B96F3
:1042B0008D919C911C97FC01B89625913491FC013D
:1042C000B09609C0F40183859485FC01BA962591C6
:1042D0003491FC01B29645915491E12C00E0B20179
:1042E000C5010E94D419D40152968D919C91539787
:1042F0008054914053969C938E935297A1CDD401B4
:104300001B964D915C911C97F0E03896CF01880F79
:10431000991FFA01E80FF91F25913491FC0170975C
:10432000E40FF51F45915491E12C00E0B2016D5F5F
:104330007F4FC50148960E94D41975CF8F929F92E6
:10434000AF92BF92EF920F9380912906882309F4D0
:104350004AC040912A0650912B06052E000C660B90
:10436000770B762F652F542F44278091210690914B
:104370002206A0912306B0912406841B950BA60B60
:10438000B70B8093210690932206A0932306B09347
:104390002406CD01BB2797FDB095AB2F9C01AC0146
:1043A000485F5F4F48385105C8F440912F0650913F
:1043B00030068090250690902606A0902706B090A3
:1043C00028064501BB2497FCB094AB2CE12C00E0FF
:1043D0002AE230E2B4010E94D41905C0283F3F4FC1
:1043E00014F4109229060F91EF90BF90AF909F9018
:1043F0008F900895EF92FF920F931F93CF93DF93C7
:10440000C091B801D0E0A69781E6E82EF12C8E018C
:10441000D7FF02C000E010E00034110554F420E0A2
:10442000A801B7018AEF96E00E94F1190F5F1F4FB4
:10443000F3CF8FEFE81AF80A80EEE816F10439F7A7
:104440006091B80170E06652710920E048E15FE0D8
:1044500081E690E00E94C4196091B80170E0645157
:10446000710920E048E15FE08FE690E00E94C41906
:104470008091B8018F5F8093B801DF91CF911F9138
:104480000F91FF90EF9008958F929F92AF92BF92FD
:10449000CF92DF92EF92FF920F931F93CF93DF9310
:1044A000CDB7DEB76E970FB6F894DEBF0FBECDBFA7
:1044B000D82E882349F081E08093B701FB018491D5
:1044C0008093A601809385078091B70191E0980FB2
:1044D0009093B701FB01E80FF11D6491E62FEF7097
:1044E000E0938407607F60937007F0E0EE0FFF1F9A
:1044F000EF57FE4F0190F081E02D10923906109297
:10450000570610927506109293061092B1061092FB
:10451000CF06849001E3E02E06E0F02E8F010E5FBF
:104520001F4F87E4A82E86E0B82E912C9EE1C92E5D
:10453000981409F470C0F8013197E491E13069F002
:1045400040F0E23071F0E330D9F44AE95FE163E032
:104550000BC040EB54E160E007C04AEF5FE161E06F
:1045600003C04AEC5FE162E0CE0101960E94611B4C
:10457000FE013196D7018C2D01900D928A95E1F7BD
:10458000F8018491E82FF0E0EE0FFF1FEF59FE4F86
:1045900080819181D7015A969C938E935997589612
:1045A0001C921E925797F8013196E491D501169707
:1045B000EC93F8013296E4911196EC93F80133965E
:1045C000E491D501EC93F8013496E491F50131972B
:1045D0001082F8013596E491F8013696E491D701FE
:1045E00019961C9219971A96EC931A9753961C9247
:1045F0001E925297F5013E9781E08083C7010E9489
:104600000F1A9394BEE1EB0EF11C085F1F4FEEE111
:10461000AE0EB11C8DCF8091A60181508093A60172
:10462000DD2009F474C08091B90190E0FC01E258EA
:10463000FE4F20816091030170910401620F711D92
:1046400027FD7A957093040160930301FC01E558FE
:10465000FE4F2081022E000C330B40910D01509132
:104660000E01420F531F50930E0140930D014091D4
:104670000B0150910C01240F351F30930C01209336
:104680000B012091090130910A012130F5E23F0729
:104690006CF0FC01EE0FFF1FEB58FE4F4081518183
:1046A000241B350B30930A01209309012091070147
:1046B00030910801213047E034076CF0FC01EE0F27
:1046C000FF1FE159FE4F40815181241B350B309370
:1046D0000801209307012091050130910601213046
:1046E000A7E03A076CF0880F991FFC01E759FE4FCD
:1046F00080819181281B390B30930601209305019D
:10470000772788EE93E00E948136609301076E96CA
:104710000FB6F894DEBF0FBECDBFDF91CF911F91D2
:104720000F91FF90EF90DF90CF90BF90AF909F9050
:104730008F90089590918307E92FF0E09F01220F59
:10474000331FE20FF31FEC50FA4F8E5E8083675FDA
:104750006183406F42838091F40681508093F40618
:104760009F5F9F3019F09093830702C010928307D8
:1047700084E1809386070895CF93DF93D82F88EC48
:1047800090E00E941C34C82F89EC90E00E941C34F9
:10479000D11104C0C43311F4833319F164E388ECFC
:1047A00090E00E942A3463E389EC90E00E942A346E
:1047B00060E080ED90E00E942A3460E070E08AECD6
:1047C00090E00E943C3460E070E08CEC90E00E944D
:1047D0003C3460E070E08EEC90E0DF91CF910C947F
:1047E0003C34DF91CF9108954091C1015091C201B5
:1047F0002091BF013091C00142175307B4F490914A
:10480000E8009570E1F39091E80092FD19C0809363
:10481000F1008091C1019091C20101968F73992797
:10482000892B19F48EEF8093E8008091C10190915B
:10483000C20101969093C2018093C10181E0089565
:1048400080E00895615030F02091F100FC01208358
:104850000196F8CF289884E68093C6010895CF93F7
:10486000DF93CDB7DEB7A8970FB6F894DEBF0FBEC3
:10487000CDBF789484B5826084BD84B5816084BDE9
:1048800085B5826085BD85B5816085BD80916E00EE
:10489000816080936E00109281008091810082601F
:1048A000809381008091810081608093810080915C
:1048B000800081608093800080919100826080936D
:1048C000910080919100816080939100809190008F
:1048D0008160809390008091C10084608093C100CA
:1048E0008091C10082608093C1008091C10081608D
:1048F0008093C1008091C30081608093C300809148
:10490000C00082608093C0008091C200816080936B
:10491000C20080917A00846080937A0080917A004E
:10492000826080937A0080917A00816080937A001F
:1049300080917A00806880937A001092C70110926B
:10494000C4011092C5018091D70081608093D70087
:1049500080EA8093D80089B5806189BD89B582607D
:1049600089BD09B400FEFDCF61E070E080E090E019
:104970000E944D178091D8008F7C80618093D80071
:104980008091E000807F8093E0008091E1008E7E46
:104990008093E1008DE08093E200559A209AEEEF3B
:1049A000FFE7859194918B3F9C4D19F481E08093B2
:1049B000C30180E00E94BC2381EC80937C0085B120
:1049C000806F85B984B1877E84B984B1876E84B9DC
:1049D0005E9A5F988AB1806D8AB9769A6E9881B333
:1049E000806F81BB899880B38D7080BB80E58CBD62
:1049F00081E08DBD85E090E00E94E4195F9A85E03A
:104A000090E00E94E4195E985C98ECE3F1E08DE0A0
:104A10008E0F94919EBD00000DB407FEFDCF319620
:104A20008E13F7CF5C9A81E88093640080916500D3
:104A30008160809365000E94E91987FF24C05C981B
:104A400085EA8EBD00000DB407FEFDCF5C9A2E985E
:104A50002F982D988091640080628093640081E09B
:104A600083BF889513BEFCCF2D980E94E9198478E6
:104A7000843871F00E94E9198471843129F188EC3D
:104A800090E00E94E4190E94E91982FDEDCF38C040
:104A90002D9A88EC90E00E94E4192F9882E090E033
:104AA0000E941C348F3F29F06FEF82E090E00E945B
:104AB000423484EF91E00E94E4192F9A0E94E91990
:104AC00084788438D9F3D6CF2D9A88EC90E00E9470
:104AD000E4192E9882E090E00E941C34882329F08B
:104AE00060E082E090E00E94423484EF91E00E9416
:104AF000E4192E9A0E94E91984718431D9F3BFCF49
:104B00002D9A82E090E00E941C34882331F03E9A76
:104B10003F9A81E08093A00104C01092A0013E98CA
:104B20003F988DE790E090930E0180930D018CE209
:104B300091E090930C0180930B0180E09BE49093B3
:104B40000A018093090180E09EE090930801809320
:104B50000701909306018093050182E390E0909312
:104B600004018093030180ED90E00E941C34809347
:104B7000B90184E180930107809164008E7F809366
:104B8000640080917A00806480937A0080917A003A
:104B900086FDFCCF00917800109179000E942817C3
:104BA00020E030E0980111270027600F711F821F5D
:104BB000931F611571058105910511F00E94133451
:104BC00080916400816080936400AE014F5F5F4F0D
:104BD0005A8F498F4C5F4FA38FB7F8944091A10132
:104BE0005091A2016091A3017091A4018FBF8091A7
:104BF0000207942F981B80910307882329F0909334
:104C000004071092030706C620910107921748F483
:104C10009F5F921708F0FEC581E083BF889513BEA1
:104C2000F9C591E090930307409302072091FD0698
:104C30003091FE062F5F3F4F3093FE062093FD0616
:104C4000E8ECF1E081118FEF00248193819381934F
:104C500081930394D1F78091FF06809300070E940F
:104C6000E9198093FF06E091BE018E2F90E0883015
:104C7000910508F0B8C5FC01EA5AFF4F0C9495362F
:104C80001092BC011092B7011092BB0111E0109379
:104C9000BE018BE89BE00E9431181092F30610923F
:104CA000F2061092F80680E09EE09093F60680935C
:104CB000F5069093EF068093EE062BE42093F4061E
:104CC0001092F7061093ED06A12CB12C6501C39448
:104CD000A092E506B092E606C092E706D092E806FA
:104CE00020E030E048E150E02093E9063093EA0606
:104CF0004093EB065093EC062DE730E030930E0125
:104D000020930D012CE231E030930C0120930B0134
:104D100020E03BE430930A012093090190930801BD
:104D200080930701909306018093050182E390E050
:104D3000909304018093030184E18093010720E0B4
:104D400041EB5AE061E070E089E490E00E94C41910
:104D500020E045E85AE064E070E08BE390E00E94D8
:104D6000C41920E049E55AE064E070E081E390E096
:104D70000E94C41920E047ED59E060E070E080E750
:104D800090E00E94C41920E045E559E060E070E041
:104D900080E090E00E94C4191091BB01812F8295A0
:104DA0008695877021F0843008F051C00AC020E059
:104DB00041E259E06FE070E087E190E00E94C419A1
:104DC00046C020E047E059E064E170E089E190E00E
:104DD0000E94C4192091B90143EF58E069E270E0E4
:104DE0008AE190E00E94C419812F887190E0F3E07D
:104DF00095958795FA95E1F7813029F0823029F46D
:104E000083E135E204C081E101C083E133E2012F97
:104E1000077020E04EEE58E06CE170E090E038A7BB
:104E20000E94C41920E049EE58E06CE170E038A51A
:104E3000832F90E00E94C419002349F00150812F74
:104E4000887F802B011101C0807E8093BB0100917F
:104E5000000700958091FF0608231091BB01129571
:104E60001695177006FF20C0113091F020F0123017
:104E7000D9F487E70EC08091B90190E00196E5E092
:104E8000880F991FEA95E1F787608093BB010CC0FA
:104E900087E58093BB016091B9016F5F6093B901B1
:104EA00080ED90E00E942A3405FF21C0123089F085
:104EB000133089F011111BC08091B90190E0019667
:104EC00075E0880F991F7A95E1F787608093BB01A1
:104ED0000EC08FE201C08FE48093BB016091B901E5
:104EE00061506093B90180ED90E00E942A3402FF86
:104EF00008C0112319F01092BB0103C086E0809313
:104F0000BE0103FF70C482E08093BE011092BC0119
:104F10006AC41092390610925706109275061092C4
:104F200093061092B1061092CF06E6EFF5E080816D
:104F30008F708083339636E0E332F307C1F7E8EDF4
:104F4000F5E080818F708083339645E0E63FF4077B
:104F5000C1F780E890E09093A8018093A70144E115
:104F6000F42EF092A90181E08093AA0126EB30E0B3
:104F70003093AC012093AB0199E19093AD0192E0A5
:104F80009093AE012CEE30E03093B0012093AF014E
:104F90009EE19093B10153E0E52EE092B20122E24E
:104FA00031E03093B4012093B30193E29093B501C3
:104FB0001092B6011092F80600E01EE01093F6067B
:104FC0000093F5061093EF060093EE069BE4909392
:104FD000F4061092F7068093ED0680E090E0A1E0E1
:104FE000B0E08093E5069093E606A093E706B093C1
:104FF000E806A12CB12C68E1C62ED12CA092E906BE
:10500000B092EA06C092EB06D092EC061092290606
:1050100083E498E00E94311880E58093B801E09223
:10502000BE018DE790E090930E0180930D018CE21C
:1050300091E090930C0180930B0180E09BE49093AE
:105040000A0180930901109308010093070110934E
:1050500006010093050182E390E0909304018093A0
:105060000301F09201078091BC01833630F489304E
:1050700038F033E0E32E0CE206C0E12C0EE203C070
:1050800026E0E22E09E28091FD0681700E94BA1BA3
:10509000F090B8019FE4B92EBF14D8F082E0C82E7A
:1050A000FC14F0F4DD24D394FD1072C08091BC0197
:1050B00065E00E946136E92FF0E0EE0FFF1FE05E31
:1050C000FE4F6081718181E00E9444221092B801FC
:1050D0005FC020E5F2125CC01092D5051092D00599
:1050E0006E2D70E06E5F7F4F20E047E158E08CE36B
:1050F00090E00E94C4198091BC01C82ED12C10E010
:10510000833678F0C601019664E670E00E9481362D
:10511000262F4FEC57E0B8018CE390E00E94C419B1
:1051200002C08930A8F0C60101966AE070E00E94D2
:105130008136CB016AE070E00E948136282F4FEC67
:1051400057E0B8016A5F7F4F8CE390E00E94C4197A
:10515000C60101966AE070E00E948136B801645F82
:105160007F4F282F4FEC57E08CE390E00E94C4194A
:1051700010E41E1949E3612F8E2D0E946B1245E445
:10518000612F8E2D0E946B128FEF8F0D8093B801CF
:105190002091F5063091F6061216130694F58091CB
:1051A000EE069091EF06181619065CF58091F70649
:1051B000811127C09091FF06809100078095892377
:1051C000225031093093F6062093F5062F3F3F4FCA
:1051D00021F41092F6061092F50697FD1CC494FD7A
:1051E0004BC495FD7AC496FD94C482FF03C098E039
:1051F0009093F70683FDA9C48091B801882309F430
:10520000E8C486EFA82E85E0B82E94EF892E95E0AD
:10521000992ED5012C912F70622F70E0FB01E55A79
:10522000FA4FE491D4018C918E0F8C93D501FB0140
:10523000ED5AFA4F64919E91690F6C93893710F47F
:10524000613410F0F5012083D5019C91907F79F0B5
:1052500070E06150710990E003E0C02EE12C00E0A5
:1052600010E020E043E755E001970E944418B3E0C6
:10527000AB0EB11CE3E08E0E911CF1E28F16F6E04E
:105280009F0609F0C6CFB6ED8B2EB5E09B2E18ED2C
:10529000A12E15E0B12ED5012C912F70622F70E058
:1052A000FB01E559FA4FE491EE0FD4018C918E0F7A
:1052B0008C93D501FB01ED59FA4F6491660F9E91D5
:1052C000690F6C93893710F0F5012083613420F069
:1052D000D5019C919F709C93F5019081907F79F00E
:1052E00070E06150710990E0A3E0CA2EE12C00E06B
:1052F00010E020E043E755E001970E944418F3E0F6
:105300008F0E911C23E0A20EB11C34EF831635E002
:10531000930609F0C0CF81E00E94CD1E0E949E211D
:105320000E94991B80E00E94CD1E6091FD06709145
:10533000FE068090E5069090E606A090E706B09005
:10534000E8064501BB2497FCB094AB2C4090E906DD
:105350005090EA066090EB067090EC06C40142960D
:105360008239910508F08EC02301772457FC709490
:10537000672C8091F5069091F606181619062CF503
:105380004091EE065091EF0641158BEF5807ECF077
:105390008091F706982F969596959695292F30E04F
:1053A000F901EB5AF94FC490EFEFE90FE73018F429
:1053B0008F5F8093F7068091F706803411F4109286
:1053C000F70641305D4F0CF02DC28091EE069091B2
:1053D000EF06181619060CF443C00C979093EF06CD
:1053E0008093EE06292F892F990F990B121614F42A
:1053F000019702C0809590952C3F3CF42A3F24F5FC
:10540000263F71F51092ED062BC02F3F09F044F5B1
:105410004091F0065091F106FC01FF277496CF01F0
:10542000880F991FFA01E80FF91F25913491FC01AB
:105430003897E40FF51F45915491E12C00E0B2013B
:10544000C4010E94D4190CC0E091F006F091F1065D
:10545000B6964591549120E0B201C4010E94B4195E
:105460002091F5063091F606121613065CF0809135
:10547000EE069091EF06181619060CF426C202C02B
:105480001092ED060E94781B0E94B61D8091B80113
:10549000811128C08091EE069091EF06181619062A
:1054A0000CF580E090E0FC01EF5CF94F20852111C4
:1054B00019C04E96843B9105B1F79091A601809159
:1054C000BC01992309F44DC265E00E946136E92FC1
:1054D000F0E0EE0FFF1FE05EFE4F6081718180E023
:1054E0000E9444228091EE069091EF06181619064C
:1054F0003CF48091F5069091F6061816190644F0D2
:105500008091A501811104C08DE596E00E943118BB
:105510008091ED06811167C185E0E2C00091B9017B
:10552000011105C08091BC018E3169F406C00130C3
:1055300051F48091BC018C3331F485E08093BE013D
:10554000FF24F39401C0F12C10E00B591F4F000F02
:10555000111FC8010E9424346C016091F206709101
:10556000F3068617970738F4C8010E943C34C090B0
:10557000F206D090F3068091BE0120E0843061F401
:1055800048ED53E060E070E082E790E00E94C419CB
:1055900020E04EE853E010C0FF2061F044E453E007
:1055A00060E070E082E790E00E94C41920E04AEFDA
:1055B00052E002C040E552E060E070E085E690E035
:1055C0000E94C41941E660E480E00E946B124FE73C
:1055D00060E480E00E946B128091B801883718F473
:1055E0000E94FA216EC020E040E654E06FE070E0D7
:1055F00084E490E00E94C41920E04CE454E065E1AA
:1056000070E087E390E00E94C41919821A821B821D
:105610001C828091F2069091F3069E012F5F3F4F0E
:105620007901F901298D2C5F6AE070E00E946D36E6
:105630008193CB012E13F8CF06E210E0D7012D9114
:105640007D014FEC57E0B8018DE290E00E94B41963
:10565000065011090E30110589F719821A821B8232
:105660001C8220E042E254E06DE070E08DE190E0C9
:105670000E94C419FE0131967F01C6016AE070E004
:105680000E946D3681936B01AFA0AE12F6CF06E299
:1056900010E0D7012D917D014FEC57E0B80184E176
:1056A00090E00E94B419065011090E30110589F7D7
:1056B00020E041E259E06FE070E080E090E00E947D
:1056C000C4198091FF06109100071095182390913E
:1056D000BE011870943039F4112309F484C082E0BB
:1056E0008093BE0180C087FF09C084FF07C081E0AE
:1056F0000E94BC231092F3061092F206112309F4C3
:1057000072C01092BE016FC01092B80187E0809302
:10571000BE0120E04FE052E066E070E081E790E0FB
:105720000E94C41920E04AEE51E064E070E088E68F
:1057300090E00E94C41941E660E480E00E946B1290
:105740004FE760E480E00E946B128091B8018837D7
:1057500018F40E94FA213FC020E046ED51E069E0D4
:1057600070E086E490E00E94C41920E04CEB51E028
:105770006AE170E086E490E00E94C41920E042EA09
:1057800051E069E070E084E390E00E94C41920E0F9
:1057900044E851E06AE170E085E390E00E94C419BA
:1057A00020E04EE651E068E070E084E290E00E9484
:1057B000C41920E049E451E06AE170E085E290E03C
:1057C0000E94C41920E041E259E06FE070E080E0FF
:1057D00090E00E94C4198091000783FD04C080916D
:1057E000FF0683FD8ECF80E00E9434138091BD01BF
:1057F000882381F081508093BD0181110BC083E823
:1058000084BD8FEF87BD81EF809380001092880068
:1058100010928A0080E090E0892B09F4DDC90E9493
:105820000000DAC9C80C0C2C000CDD08911115C061
:105830004091F906842F042E000C990B97FF03C0AA
:1058400091958195910984301CF5CB0166E070E05B
:105850000E946D3601E0049708F400E08091F006A4
:105860009091F106F9013896AF01440F551FFC01E4
:10587000E40FF51F25913491FA017097E80FF91F95
:1058800045915491E12CB201C6010E94D4199DCDDD
:1058900001E014160CF400E0E02E2BE735E047EEB3
:1058A00055E0B201C6010E94D4198091F90687FF24
:1058B00003C08F5F8093F9068091F90618160CF0EB
:1058C00084CD81508093F90680CD2C5031093093DE
:1058D000F6062093F506932F97FD9195492F50E0FA
:1058E0004131510508F0CECDFA01E25AFF4F0C9438
:1058F0009536A6E003C0ABE001C0AEE0A80D99E08C
:1059000081E013C0A4E1A80D9EE086E00EC09924BA
:10591000882D831BA2E1A80F84E1890F985E05C042
:10592000A4E1A80D88E0890F945F5091F0064091A2
:10593000F106E52FF42FE90FF11DE90FF11D259177
:105940003491E52FF42FE80FF11DE80FF11D45917B
:105950005491E12C00E0B2018A2F90E00E94D4190A
:1059600091CD8F5F8093BC0188E28093B8018BE179
:1059700097E00E94311884E08093BE01C12CD12CA5
:1059800016E00C2DE0E8CE16D10409F4ABCD8C2D39
:1059900081700E94BA1B0E949E210E94991B80E088
:1059A0000E94CD1E8090E9069090EA06A090EB063A
:1059B000B090EC064501BB2497FCB094AB2C409012
:1059C000E5065090E6066090E7067090E806802FA6
:1059D000612F0E94613601E0933008F000E0E12C75
:1059E00021ED32E143EB53E1B401C601860D971D71
:1059F0000E94D4190E94781B0E94B61D81E00E946B
:105A0000341364E170E080E090E00E944D17BFEF36
:105A1000CB1ADB0AB6CF4091E9065091EA066091B5
:105A2000EB067091EC064D3C3CEC530761057105AB
:105A30000CF4D5CB8A019B010C5C1C4C210931096B
:105A4000041715072607370724F44091F9064F5F1E
:105A500008C040175107620773072CF44091F906FC
:105A600041504093F9060093E9061093EA0620930B
:105A7000EB063093EC06B3CB4091E9065091EA0671
:105A80006091EB067091EC0641155105ADE26A0795
:105A900071050CF0A6CB8A019B01045313432F4FD1
:105AA0003F4F041715072607370724F44091F906DE
:105AB0004F5F08C040175107620773072CF44091ED
:105AC000F90641504093F9060093E9061093EA065F
:105AD0002093EB063093EC0684CB4091E506509181
