:100000000C94F8110C9420120C9420120C942012D1
:100010000C9420120C9420120C9420120C94201298
:100020000C9420120C9420120C9420120C94201288
:100030000C9420120C9420120C9420120C94201278
:100040000C9420120C9420120C9420120C94201268
:100050000C9420120C9420120C9420120C94EE207C
:100060000C9420120C9420120C9420120C94201248
:100070000C9420120C9420120C9420120C94201238
:100080000C944D190C9420120C9420120C942012F4
:100090000C9420120C9420120C9420120C94201218
:1000A0000C9420120C9420120C942012CF232E2496
:1000B0001025B925E527E527C828CD284629B129E7
:1000C0003F2C412C432C482C4D2C4D2C4D2C4D2C91
:1000D000562C562C562C562C992799279927992718
:1000E0009727B11DB71D931DA21DD31DD31DBD1D87
:1000F000C31DC91D0E02111A07040C0008090D03C7
:100100001B15060E0201171A041C150008090D0321
:100110000B060E00020406181A150C010307090B42
:100120000D0E0E0708090D000102131A0B0C141511
:10013000060E000102031415060708191A0B0C0D10
:10014000D5F08D14A1C881CFD9F1AF2000111020B6
:10015000705052FAA850FE07FE50A8FA5250702074
:100160000E040060FF23606163616023FF60000490
:100170000E150802070220702002070220702002DC
:1001800007022070200207023C18207020000000A7
:1001900001FFFFFF00317B030001FFFFFF010000B3
:1001A00080031FFFFFE00F010001FFFFFF010001BF
:1001B000F30F3F7EF8E1DF010078FEFF0120E1E36D
:1001C000EF0000207020103030B0B0B0B2B3B3B345
:1001D000B2000000008273F3F3C0020383E0F21365
:1001E000031332F00012F3F3F30210B2330200E013
:1001F000F1938330700001B3B2B0B3B1B1B0B0309D
:100200003010000000000101010505051500002067
:100210003C23082F3F3F3820071F3F200020300895
:1002200000203F3F3F00233338003C312307273F66
:100230001E0000150505050101010000000022084F
:100240003F300C0219240438003804380438007890
:10025000042418003D003C08003D00182424002818
:1002600034340B10010411471F7C3F0771C81C0078
:10027000000000010000030100001B083F090906FF
:10028000003F0404380018240438003C08001824F7
:10029000043800780424180B10F804FA8D8DFD8DB5
:1002A0008DFA04F800011E212F212F211E010019B3
:1002B000083F0901003D003F0038043804380018A9
:1002C000242418023F02182434280B10F038FD763D
:1002D0007C7C7C76FD38F00000000101000101000B
:1002E00000000508120E070E1233107CFEFF0100FD
:1002F00083CF0001FFFFFF00FFEFEE00FFFFFF10C5
:1003000081C700FFFFFF00FFFE7C01FFFFFF010030
:100310000700FFFFFF000700CE9F3938F3F700000A
:1003200001010001000001010101000001010001C3
:1003300001010001010001010100010000010101B2
:1003400001010000000101010000000101010001A4
:10035000003E183C7EFF00F17780F08C23FFFEE02A
:100360000081FF0FFE08FFFFFF00FFFFFF0881E78E
:100370000000003C7EFF00FF7E3C010F7FFD600F10
:100380000100FFFFFF0881E700FFFFFF007FF7F696
:10039000C0048484C48484040404040404048484A1
:1003A000C484840404000000100420845004F0F885
:1003B00098E838B0E0C0800000040404048484C4D9
:1003C0008484040404040404048484C48484040031
:1003D0000403010304000000000000000403010303
:1003E00004000000000000000F1A151208010306A7
:1003F0000F0B0C07030000000000000403010304BE
:10040000000000000000000403010304003C185039
:1004100020000001F70FFFFC08FFFFFF010001FFB4
:10042000FFFF01008E1F3938F3F7008E1F3938F3B4
:10043000F70001FFFFFF017CFEFF0100FFFE7C01D2
:10044000FB071F7EFCF1EF0000205048C8A8C849F8
:10045000090849C8A8C949010100E1F1F90901F8F1
:10046000F1E108F9F9F800F91900F9F9F88009390A
:1004700001F9F9F800F9793001000049C9A9C84823
:10048000080949C8A8C8480A0502050A00000A0563
:1004900002050A00000003070F08000F0703000011
:1004A000070F000300000F0F0F000C0E000F0F0FBF
:1004B00000070F0E0400000A0502050A00000A05E5
:1004C00002050A3E18200020000001F70FFFFC087B
:1004D000FFFFFF010001FFFFFF01008E1F3938F30E
:1004E000F7008E1F3938F3F70001FFFFFF017CFE94
:1004F000FF0100FFFE7C01FB071F7EFCF1EF000007
:1005000020002040C0E0C0400171F8C9C098B90186
:10051000F9F9F80109F909E1F0F90900197900E0A0
:10052000F1F90801197800F9F9F98109380071F930
:10053000C8C198B80171F9C8C098B90140C0E0C0FD
:10054000400201000102000E0C09010F0700070F15
:100550000F0008070003070F08000C060003070F31
:1005600008000C06000F0F0F000C0E000E0C090106
:100570000F07000E0C09010F070002010001022500
:10058000083F043F003A0018A478003E08380000F5
:1005900022252519001824240018242418003C08BA
:1005A00004001824342816082225251900182424AC
:1005B0000018242418003C080400182434282218A9
:1005C000E01090909090909090100884828281C169
:1005D000F9F9C18182828408109090909090909057
:1005E00010E01F20A5A6A5A6A5A625408000417362
:1005F0003F1F1F1F1F3F734100804025A6A5A6A5D2
:10060000A6A5201F0000000000000000000000015F
:1006100002020404040404040202010000000000B9
:10062000000000000000E4020200750506007D06DF
:100630000800750504000080DC00090093000A0032
:1006400083000600AF000A000080AF00030026010F
:100650000400B8010400A50001000080AF001600EE
:10066000AF001600AF00160000800E1000FC021252
:1006700062026A02621202FCA8000001020602067F
:1006800002060206020502000E1000FC02123A7A6F
:10069000F27A3A1202FCA8000001020602060206E3
:1006A0000206020502000E1000FC02F2CAF202F27B
:1006B000CAF202FCA80000010206020602060206B7
:1006C00002050200FFFF0001010100FF000101011E
:1006D00000FFFFFFFFFF0001010100FF000101011A
:1006E00000FFFFFF03080007020700070080E8FC87
:1006F000FEFC5CFCFCF8FCFCFCFCFEFCE0400C1F7F
:100700003F1F0F1F1E1F1F7FFFFFFFFF7F1F0C00DC
:1007100000000000000000000000000103010000D4
:10072000000080C0E0C080C0C0C0C0F0F8FCFEFC8B
:10073000F0C08000010FBFFFFFFFD3FFFFFFFFFFEF
:10074000FFFFFFFF3910000000010301010101005C
:1007500001010101030100001213000080E8FC18F0
:100760000848E8E0C8CCC8E0ECC04000000C1D0F11
:10077000050C0C0E0E067DE6FD76000C0000000058
:100780000000000000000000000001000000000068
:100790000080C080008080808000F038FC70008085
:1007A000000000010DBFFDC18193BB3B9D9B9D3BA4
:1007B000B819100000000000010000000000000156
:1007C00000000100000000070E0700FFFEFF5504B7
:1007D000690200000D005504690000000D00550479
:1007E0006900000001001704AB01000001001704BC
:1007F000D500000001001704D50000000100DC0353
:10080000810200000100DC03D50000000100A40308
:100810001C0100000100A403460000006C00A403BA
:10082000220000006C00A403220000006C00A4035E
:1008300022000000480070031C0100000100E402D7
:100840001C010000010070031C01000001003F03B7
:100850001C010000010093021C01000001003F0385
:100860001C0100000100E4028102000001006E0290
:100870004600000001000B024600000001006E026D
:100880004600000001002A027B030080E402F2011E
:1008900000009000E402220000004800E402220070
:1008A00000004800E402B10000006C00E4026900AE
:1008B00000002400E4024600000048003F036900F5
:1008C00000002400A403690000002400DC030A04E3
:1008D0000000FB00DC036900000024005504460012
:1008E00000004800DD0446000000480075055D0278
:1008F0000000240075052200000048007505220054
:1009000000004800750522000000B3005504B10046
:10091000000024007505460000004800C805750069
:10092000000018007D06690000002400C805690663
:100930000080570016005700160057001600008070
:1009400029087F021C027F0000447D4000004854BB
:100950005454240048545454240000447D40000062
:100960003844444438007C0804047800002C015DBD
:100970000152005D0152005D0152005D0152000014
:1009800000030072015200720152007201520072A3
:1009900001520000000300880152008801520088C3
:1009A00001520088015200000003009F0152009F85
:1009B0000152009F0152009F01520000000300B845
:1009C000015200B8015200B8015200B801520000B3
:1009D000000300D2015200D2015200D2015200D2D3
:1009E00001520000000300EE015200EE015200EE41
:1009F000015200EE015200000003000B0252000BF6
:100A00000252000B0252000B0252000000030000D1
:100A10008004083E09093E3F25251A1E2121123F68
:100A200021211E3F2525213F0505011E21293A3F91
:100A300004043F213F21001021211F3F040A313FC0
:100A40002020203F02023F3F02043F1E21211E3F83
:100A50000909061E21112E3F0909362225251901F3
:100A60003F01011F20201F0F10201F3F10103F3B90
:100A700004043B03043807312D23211E29251E229F
:100A80003F2000322929261221251A0C0A3F081777
:100A90002525191E252518013905031A25251A06AD
:100AA00029291E11087E003048685000384038005F
:100AB00030486850007E0508040607060405080152
:100AC000030703011F08FC042418003C0804001855
:100AD00024342800283434002834340000007E8177
:100AE000BD95BD817E8010A02000804040404040E8
:100AF000802020800080404040800020C000000016
:100B00008040400000000040404000408000004025
:100B10000000000000004000000000000000000095
:100B200000000000000000000000000000000000C5
:100B30000000000000004000000000000040000035
:100B40008040004040400000000040408000000025
:100B5000C0200080404040800080202080404040F5
:100B60004040804020A0A0FAFDEDFEDDBEFDFEF578
:100B7000FEFDDDFEFDEEFDFEF3ECD3E0E888D0C027
:100B8000F0FAF8ABD9F3F4F2D1FBF9AAD8F2A4FE4B
:100B900000AAAAAAAA00FEC8F5E5D4E8D0E8D2D2F5
:100BA000E8D4E4D4E4D4E8D4E4D4E4D4E8D2D2E879
:100BB000D0E8D4E5F5C8F4D2EADAEADAEADAA4F25F
:100BC000D8AAF9FBD1F2F4F3D9ABF8FAF0C0D08887
:100BD000E8E0D3ECF3FEFDEEFDFEDDFDFEF5FEFDEF
:100BE000BEDDFEEDFDFAFF8010FF5FBFB77FBB7D6E
:100BF000BF7FAF7FBFBB7FBF77BF7FCF37CB07172D
:100C0000110B030F5F1FD59BCF2F4F8BDF9F551B02
:100C10004F255B575B575B574B2F13AFA72B170B1A
:100C2000174B4B172B272B272B172B272B272B1734
:100C30004B4B170B172BA7AF137F0055555555007E
:100C40007F254F1B559FDF8B4F2FCF9BD51F5F0FEE
:100C5000030B111707CB37CF7FBF77BF7FBBBF7F9A
:100C6000AF7FBF7DBB7FB7BF5F05050402010202F6
:100C70000202020104040100010202020100040355
:100C80000000000102020000000002020200020156
:100C90000000020000000000000200000000000050
:100CA0000000000000000000000000000000000044
:100CB0000000000000000000000200000000000032
:100CC0000200000102000202020000000002020114
:100CD00000000003040001020202010001040401FB
:100CE000020202020201000405361020380F053D01
:100CF0000720382F2525110021393F0101031C272A
:100D000020301C0F20380F053D072039072C3927CC
:100D1000010000000021393F0101031C26012019B8
:100D20000E000000040E0400203C033F10283E3F4C
:100D30000120382F0120382F21211F0E003D3F09AF
:100D4000043F1824330D2A3F2000213F3D040301B6
:100D500000040E040000003E200050805C9211F15F
:100D6000010101FF00A000F8040201E111111111BD
:100D7000E1010204F8004000C030080601C1F101A1
:100D80000101FF000000004000C030080601C1F171
:100D9000010101FF00000000000055AA00FF000053
:100DA00000FF002A400F1830202122222222E300D7
:100DB0000000FF007C43404040444744C70000001F
:100DC000C744447C017C43404040444744C7000042
:100DD00000C744447C804000714844434040404345
:100DE0004478008F11214143424242424340201047
:100DF0000F0001020142A1027944434040404344B4
:100E000078010201020142A102794443404040437B
:100E10004478000201020102010201020100000007
:100E200000000102010201020102010000000000B5
:100E300000000001020102010201020100000000A5
:100E40000000000001020102010201020100000095
:100E5000005504A8000000B0005504A80000005C84
:100E6000013F03A8005504A800DC030C067003A88A
:100E7000000000B0007003A80000005C017003A82F
:100E800000E402A8007003A800A403E200E402E268
:100E900000A403E2001704E2003F03E2001704E2AB
:100EA000005504A8000000B0005504A80000005C34
:100EB000013F03A8005504A800DC030C067003A83A
:100EC000000000B0007003A80000005C017003A8DF
:100ED00000E402A8007003A800A403E200E402E218
:100EE00000A403E2001704E2003F03E200DD04E295
:100EF000007505CF08BA020604E402A8001003A892
:100F0000003F035F05A4035603000007001704A871
:100F1000005504A800DD04A80075055F05C8055646
:100F20000300000700490755017D06A800C8055FBA
:100F300005DD04560300000700C80555017505A826
:100F40000055045603000007001704A800A403A8D6
:100F5000003F03A800BA020604E402A8001003A898
:100F6000003F035F05A4035603000007001704A811
:100F7000005504A800DD04A80075055F05C80556E6
:100F80000300000700490755017D06A800C8055F5A
:100F900005DD04AE023F035501C805A8007505A88C
:100FA0000055045F050080400004000150000081EE
:100FB000400005FF0150000081400006FF00251A97
:100FC0000105FF0118031804000119000081400009
:100FD00006FF0040FF0028FF005000008180C0E0B5
:100FE000F0F8F8FCFCFCFEFEFEFFFFFFFFFFFFFF3A
:100FF000FFFFFFFFFFFFFFFFFFFFFFFFFEFEFEFC07
:10100000FCF8F0C0000103070F0F1F1F1F3F3F3FF9
:101010007F7F7F7F7F7F7F7F7F7F7F7F7F7F7F7FE0
:101020007F7F7F3F3F3F1F1F0F0701FFFFFFFFFF36
:10103000FFFFFFFF0101010101010101010910FE94
:10104000FDC3BBBBBBC7FFFF0101010101010101E2
:1010500001271080C060B058A85CAC54AEFA8EF77F
:10106000959FF5979DF7959FFDFFFD7F7D3FDDDF08
:10107000DD3FFEFEFE0CFC18F0C0000103060D0A69
:101080001D1A153A2F3877547C57745C77547C5F5F
:101090007F5F7F5F7E5D7D5D7E3F3F3F181F0C075A
:1010A000010910FF7F87BBBBBBC7FFFF0001010128
:1010B00001010101010910FFFFC7BB3BBBC7FFFFD7
:1010C0000101010100010101010910FFFFC7BBBBC4
:1010D000BB877FFF0101010101010101000910FF30
:1010E000FFC7BBBBBBC7EFEF01010101010101015C
:1010F000010910FFFFC7BBBBBBC3FDFE010101011E
:1011000001010101010910FFFFC7BBB8BBC7FFFF09
:101110000101010101010101010000000000F0FED8
:10112000FFFFFEFCE0000000000000000000008067
:1011300000000010387CFEFEFFFFFFFFFFFFFFFFF7
:10114000FEFEFE7C7C7C7CFEFFFFFFFE10000000AC
:1011500000001FFFFFFFFF7F0F01000000000000E5
:101160000000010301000000000000000000010178
:10117000000000000000000000000000000000006F
:10118000001A19000000000000F09E9EFCE0000024
:101190000000000000000000000000000000103807
:1011A0007C547CFFBBBBBBBBFF7C7C7C7C38383871
:1011B0003828D6D7FE10000000000000001FF3F30F
:1011C0007F0F01000000000000000000000100008F
:1011D000000000000000000000000000000000000F
:1011E0000000000000000000000000111100001CC1
:1011F0003CFCD8B070E8C422120E00000000001CB5
:1012000012110805030307074F6C30380C0000006B
:1012100000000000000000000000000000000000CE
:10122000111100008080FC828CF08080800000C062
:10123000E00000000103037E82621F03030301013B
:10124000070F010000000000000000000000000087
:10125000000000000011110070901020408080C03C
:10126000C0E46C1838600000000070797E371B1DE8
:101270002F478990E00000000000000000000000FF
:10128000000000000000000000001111000000003C
:1012900000040CCCFECC0C0400000000000008147C
:1012A000141212127FE37F121212141408000000AD
:1012B000000000000000000000000000000000111D
:1012C0001100006038186CE4C0C08080402010908D
:1012D000700000000000E09089472F1D1B377E79C9
:1012E000700000000000000000000000000000008E
:1012F0000000000011110000E0C00000808080F0BC
:101300008C82FC8080008000010F07010103030331
:101310001F62827E03030100000000000000000045
:101320000000000000000000001111000000000E8D
:101330001222C4C870B0D8FC3C1C000000000C385D
:10134000306C4F07070303050811121C0000000052
:10135000000000000000000000000000000011116B
:1013600000205050909090FC8EFC90909050502017
:10137000000000000000406067FF67604000000060
:10138000000000000000000000000000000000005D
:10139000000000060002F0D0000000010002F0D0C2
:1013A00010000001010000F0240000020100000212
:1013B000240000020002F0204A0001010002F02097
:1013C0005A000101050002F0D0000000010002F007
:1013D000D028000001010000F944000002000200D2
:1013E0002000010101000200202801010105000286
:1013F000F0D0000000010002F0D028000001010040
:1014000000F9440000020002002000010101000276
:10141000002028010101050300000004000005036D
:101420000000F43E0000050002F0D00000000100C2
:1014300002F0D0230000010002F0D04600000106B7
:10144000000000F012000001000000F9000000019F
:101450000000000212000001020000E4400000024F
:10146000020000F52C00000202000006400000020D
:10147000060003D6D0000000010003E6E0000000F3
:1014800001010000EB14000002010000F92400003B
:10149000020100000734000002010000F9400000D2
:1014A00002050002F0D0000000010002F0D0280088
:1014B0000001010000F9440000020002F0201400C5
:1014C00001010002F0203C00010104000000F012C4
:1014D000000001000000F9000000010000000212FD
:1014E00000000103000000300000050500010005B8
:1014F000000000010001000514000001000100ECE3
:1015000000000101000100EC14000101000000F9DD
:101510002800010104000000E700000001000000B5
:10152000F9000000010000000B00000001020000B3
:10153000F51600000104000000F1000000010000A9
:10154000000300000001010000F112000002010090
:101550000003120000020500010005000001010067
:101560000100EC14000001010000E732000002015C
:101570000000F9320000020100000B3200000205F9
:10158000010000E724000002000000F0120000014A
:10159000000000F90000000100000002120000013C
:1015A0000100000B24000002020000000500000002
:1015B000010000000018000001000000FB500000C6
:1015C00001000000F6680000010511F110DD10C9EE
:1015D00010B510A11051103D102B102B102B102BFB
:1015E000102B102B10DD0F2B10B82086205420223A
:1015F00020F21FC21F921F621F8111811181118170
:1016000011811181118111811119111911191119EA
:10161000111911191119111911B8208620542022FD
:1016200020F21FC21F921F621F5E132913F412BF04
:10163000128A1255122012EB11011DCE1C9B1C6840
:101640001C351C021CCF1B9C1BB82086205420225A
:1016500020F21FC21F921F621F00E0F0E0C080C096
:10166000C0F0FCFEFFFEFCC08000010F1F0F07034F
:1016700007071F7FFFFFFF7F070301000000000037
:101680000000000000000100000000001118000030
:10169000E0C00000808080F0FCEEFC808000000054
:1016A000010F0701010303031F7EEE7E0303010008
:1016B000000000000000000000000000000000002A
:1016C0000020F0F8F8F07070F0F0FCFEFFFEFCE097
:1016D000800000207FFFFF7F70727F7FFFFFFFFF92
:1016E000FF3F0F07020000000000000000000103A0
:1016F0000703010000000012180020F0F020202055
:10170000606060BC66BC600000000000207F7F203D
:101710002020323735ED37ED350707020000000095
:10172000000000000000000103010000000000FCB8
:10173000FEFFFFFFFFFFFFFFFFFFFEFCF8010307B7
:101740000F0F0F0F0F0F0F0F0F07030102040810E9
:101750002040800F0F0F030400060007070707074C
:10176000070707070707070707070707110600020C
:101770000002000200020002000200020002000556
:101780000301010301070505040E1F1F0A0F0F0FB8
:101790000F0F050406090909060E040406040F02CA
:1017A000040906060904090604040F0506070807CC
:1017B000010F0609070106020204080F06090609BF
:1017C0000603040A09064C0B00C430CAA4D5E96814
:1017D000F4EAF2EAF2AAF4E9E9F4E874EAF29A64C3
:1017E00098014640800084D2C258C898A0928ADAF4
:1017F000C852C4902050B000000060108040A0206B
:10180000A0408040909040A020A020A04080905018
:1018100040802000040603040107070707060507A8
:101820000707030706070707070707070607030455
:101830000606070707050607070702070705060745
:101840000500020000040402050607070607060754
:101850000606070207060706070606050204030434
:101860000020804050908048A020A828A040909060
:10187000409040A028A840F294004040800084D2CC
:10188000C2D8C898A0928ADAC8D2C49020F2005078
:1018900050505000F240A828A0409040909040A0A6
:1018A00024A424A44880905040A000000403040213
:1018B00005060607060706070607060607060706C3
:1018C00007070607060707040606070506050707B4
:1018D00007070607070707070507000505050500B1
:1018E0000706070706070607060607060706070690
:1018F00007060605020403044C0B010E2912554B82
:101900000B172B272B272A174B4B170B172B272F80
:10191000130D42310100006A50254F1B559FDF8A8D
:101920004F2FCF9BD51F5F0F030B111607CB37CF60
:101930007FBF77BF7FBBBF7EAF7FBF7DBB7FB7BFA2
:101940005F2C99661B0100000000000000000000F1
:101950000000000000000000000000000000000087
:10196000000000000000000102000202020000006E
:101970000002020100000003040001020202010053
:101980000104040102020202020100040501000038
:10199000000001062912554B0B972B272B272B17DD
:1019A0004B4B174B172BA7AF137F005555555500C1
:1019B0007F254F1F5F9FDF8B4F2FCF9FDD1B5D0F5D
:1019C000030B1117074B7F13AFA72B174B174B4B6D
:1019D000172BA7AB272B970B4B551229060100009D
:1019E00000000000000001010101000000000000F3
:1019F00000000000000200000000000002000001E2
:101A000002000202020000000002020100000000C9
:101A100000010200000000000000000000000000C3
:101A200000000000000000000000241608C43ACAAC
:101A3000A4D5E968D4D4D4E9E8F679F5E9D6A8E9DB
:101A400014E21C01980000000000000000000000EB
:101A50008038472897154B97972F554F574F572F3B
:101A60001697AB25535C6300100080826098E8EA0B
:101A7000D224C000000000020000000000010100AC
:101A8000000101020000001C200C12121529243252
:101A9000092B0913150807001E10C0243ACAA4D543
:101AA000E968F4EAF2EAF2AAF4E9E9F4E874EAF29D
:101AB0009A649801464080000039472817156B97B3
:101AC000AF9E6F17972B2B2B964B0B374F5D2F2FFE
:101AD00056453906300022168040460198649AF235
:101AE000EA74A834A969F4AAF2AAF2EA6AB26AF21C
:101AF000EAF4A8E9D5A4CA3AC40070863945DE3FA5
:101B0000FE57FBF3BBD79FD3BFFFFBFBBDFAFDDE48
:101B1000ECC8EBDDF9DB7FFF28473880000817149D
:101B2000092A25050A15131713170D0B020B1D0F94
:101B300025250B050B1513160906211800000D0BA2
:101B4000008080387CE603E0FEF8E00080010202BD
:101B5000040404040504040402010C0940A0A0A02C
:101B60001000783F3E388060000000000101010154
:101B70000101000009102080000000000011040293
:101B8000000000882000000009100000001104007F
:101B9000004000882000000000000401001E3EFEFE
:101BA000FEFCF8F8FCFEFF3F1F0F0000003C3E3F2C
:101BB0003F1F0F07070FCFFFFF7C7C7E0E0000004A
:101BC0000000000000000000000000000000000015
:101BD00080C0FCFEFFFEFCF0C0C080C0E0F0E00072
:101BE0000103077FFFFFFF7F1F070703070F1F0F7B
:101BF00001000000000001000000000000000000E3
:101C0000000078F8F8F8F0E0C0C0E0E6FEFE7C7C6A
:101C1000FCE00000F0F9FFFF7F3F3F7FFFFFF9F09E
:101C2000E0000000000000000000000000000101D2
:101C3000010100000000000000040EDEFEFFFEDED9
:101C40000E0400000000081C3E3E3F3F7FFFFFFFE8
:101C50007F3F3F3E3E1C08000000000000000001E6
:101C6000000000000000000000E0FC7C7CFEFEE6BE
:101C7000E0C0C0E0F0F8F8F878000000E0F0F9FF0C
:101C8000FF7F3F3F7FFFFFF9F000000000010101EF
:101C9000010000000000000000000000E0F0E0C0D3
:101CA00080C0C0F0FCFEFFFEFCC08000010F1F0FD3
:101CB000070307071F7FFFFFFF7F070301000000E7
:101CC0000000000000000000010000000000000013
:101CD000000F1F3FFFFEFCF8F8FCFEFE3E1E00005A
:101CE0000E7E7C7CFFFFCF0F07070F1F3F3F3E3C60
:101CF00000000000000000000000000000000000E4
:101D0000002070F8F8F8F8FCFEFFFEFCF8F8F8F890
:101D100070200000000041E1F7FFFFFFF7E1410004
:101D200000000000000000000000000100000000B2
:101D300000000000111100001C3CFCD8B070F8EC51
:101D40003E1E0E00000000001C1E1F0D07030307AF
:101D5000074F6C30380C000000000000000000004D
:101D6000000000000000000000111100008080FC55
:101D7000EEFCF08080800000C0E000000001030362
:101D80007EEE7E1F0303030101070F010000000028
:101D90000000000000000000000000000000111121
:101DA0000070F0F060C08080C0C0E46C1838600043
:101DB00000000070797F371B1D3F6FF9F0E00000D5
:101DC0000000000000000000000000000000000013
:101DD00000000011110000000000040CCCFECC0C2F
:101DE00004000000000000081C1C161E1E7FE37F7C
:101DF0001E1E161C1C080000000000000000000051
:101E00000000000000000000111100006038186C94
:101E1000E4C0C08080C060F0F0700000000000E00E
:101E2000F0F96F3F1D1B377F797000000000000044
:101E30000000000000000000000000000011110080
:101E400000E0C00000808080F0FCEEFC808000801C
:101E500000010F0701010303031F7EEE7E03030150
:101E60000000000000000000000000000000000072
:101E700000001111000000000E1E3EECF870B0D8FA
:101E8000FC3C1C000000000C38306C4F07070303BB
:101E9000070D1F1E1C0000000000000000000000D5
:101EA00000000000000000111100207070D0F0F060
:101EB000FC8EFCF0F0D070702000000000000040AC
:101EC0006067FF6760400000000000000000000045
:101ED00000000000000000000000000080E0F0E0D2
:101EE000000A3F7F3F02000000000040F0F8F000D1
:101EF000127FFF7F02000000000040FCFEFC401744
:101F0000FFFFFF12000103010060FEFFFE7020379B
:101F1000FFFFFF772200030703000005130080E0A6
:101F20000000000A3F02000000000000051300400E
:101F3000F0000000127F0200000000000005130006
:101F400040FC40000017FF120000000100000613D3
:101F50000060FE2020000037FF2722000000030061
:101F600000000E0EEEE0E00080DCDFFF67737370B0
:101F70000000E0E0FBBB3FE7E7E7070100C0DCDC77
:101F80001C00010303030000000000000001010128
:101F900000000F1F6FF4E8FCDEFFFFE7F07F1F4734
:101FA000E040C0E8FECF0F67F7FFFF9F3D10C0E2A3
:101FB000F7620101010301000000010000030303B7
:101FC000000000001C1C7CFCFCF8F8FC3C1C000021
:101FD0000000000038383E1F0F0F070F1F1E1C00A7
:101FE00000000000000000000000000000000000F1
:101FF000000070F0F0FEFEFEF8F0F8F8FC7E3E0EF9
:10200000000000F0FDFF7F7F3F1F0F1F3F3F7C70F0
:10201000700000010101000000000000000000004D
:1020200000001012000400400000008088420001FF
:10203000200000008040001100024002000000006B
:102040008008000000000100000000000000000007
:10205000000000001012060F0460C0C88C9EC7C0AC
:1020600060100200400080C0C806070363678F0D40
:10207000100000C06200000000010000000000002D
:102080000000010000001012000000001070E0E0ED
:10209000F03008000000000000000010080E0707E4
:1020A0000307060800000000000000000000000018
:1020B000000000000000000010122060E0E0FCF8CA
:1020C000F0E0F0F078380C0000000000E07D3F3FC9
:1020D0001F0F070F1F1C3020000000000000000031
:1020E0000000000000000000000060FEFFFE702005
:1020F00037FFFFFF7722000307030000000080F096
:10210000FCFEFFFEFCF0F0F070F0F8F8F0200207A3
:102110000F7FFFFFFFFFFF7F7F7A70FFFFFFFF2032
:1021200000000000010307030100000000000000A0
:1021300000000000A0FEFFFEFC70F0F8F020020797
:102140002FFFFFFFFF777FFF7F20000000030703C3
:102150000100000000007070FEFFFE707277FFFF4C
:10216000FF7700000307030070F8F8F870FCFEFF2B
:10217000FEF0000070FFFFFF77FFFFFFFF7F070209
:1021800000000000000103070300000070F8F8F8E9
:10219000F870F0F0F0FCFEFFFEFCF080000070FF35
:1021A000FFFFFF707A7F7FFFFFFFFFFF7F0F0702B8
:1021B0000000000000000000000103070301000010
:1021C000000006130060FE2020000037FF272200D9
:1021D00000000300000012130000000060FCFEFC81
:1021E000606060202020F0F020000002070737FF29
:1021F000FFFF3737322020207F7F200000000000C3
:1022000000010301000000000000000000000C13AA
:1022100000000020FEFC202020F020000002072704
:10222000FFFF272220FF2000000000000301000024
:10223000000000000613002020FE6000002227FF9F
:1022400037000000000300000C130020F020206085
:10225000FCFE2000000000207F202237FDFF250724
:102260000200000000000000010300000000121343
:102270000020B0F0202020606060BC66BC600030B0
:10228000000000206F7F202020323735ED37ED35FC
:1022900007670200000000000000000000000103CA
:1022A0000100000000000020B0F0202020606060ED
:1022B000BC66BC600060000000206F7F20202032E0
:1022C0003735ED37ED35073702000000000000001C
:1022D0000000000001030100000000000080F8FC85
:1022E0005EAFDEBC78F0C000001E7FFFAAD7AB5700
:1022F000AF5FFFFEF8E080EF7FBA55AB57AEDFFF70
:10230000F7E34007FFFDEA57EF77FFFF7F07030082
:10231000000003070D06070301000000000D240064
:102320000080F85CAEDCB870C0000000001E7FAA20
:10233000D7AB57AF5FFEF8E00000806FBA55AB57E0
:10234000AEDFF7E340000007FDEA57EF77FF7F07B6
:10235000030000000000030502030100000000006C
:102360000E1000FC020202FA2A0A020202FCA80075
:102370000001020602060206020602050200A71E6E
:10238000721E3D1E081ED31D9E1D691D341D011D9C
:10239000CE1C9B1C681C351C021CCF1B9C1BB82030
:1023A000862054202220F21FC21F921F621F6E221D
:1023B000482234220E22D6210E22C22148228C210C
:1023C000682156213221FC203221EA206821B820E0
:1023D000862054202220F21FC21F921F621F4E1F10
:1023E0003D1F2C1F1B1F091FFA1EEB1EDC1EAB32EC
:1023F00011241FBECFEFDAE0DEBFCDBF11E0A0E0B9
:10240000B1E0ECE2FEE602C005900D92AA37B107FA
:10241000D9F727E0AAE7B1E001C01D92A630B207C4
:10242000E1F711E1C8EFD1E104C02197FE010E945C
:102430001E36C73FD107C9F70E941D220C941437DE
:102440000C9400002F923F924F925F926F927F9276
:102450008F929F92AF92BF92CF92DF92EF92FF92B4
:102460000F931F93CF93DF93CDB7DEB762970FB66D
:10247000F894DEBF0FBECDBF8A8B1DE4212E16E07F
:10248000312E00E4802E06E0902E88E496E09F87AF
:102490008E87A6E5B6E0B98BA88BEFE4F6E0F98766
:1024A000E887FA89F11105C0D1018C91833029F4B4
:1024B0001CC0F10180818330C1F4C4010E94531C0F
:1024C000C4010E94882029833A834B835C8329813D
:1024D0003A818B819C81AE85BF854C91442329F044
:1024E000A889B9894C91442399F1BEE12B0E311C86
:1024F000EEE18E0E911C8E859F854E969F878E876E
:10250000A889B9895E96B98BA88BE885F9857E96EE
:10251000F987E887F1E02F16F7E03F0611F662969B
:102520000FB6F894DEBF0FBECDBFDF91CF911F91E4
:102530000F91FF90EF90DF90CF90BF90AF909F9062
:102540008F907F906F905F904F903F902F90089565
:10255000A901460F511D141615063CF62038310509
:1025600024F69C01270F311D37FDBFCF8034910524
:102570000CF0BBCFF101F081FF83F33009F02BC1E8
:102580004091A005F9E0AF2EA40E2091A405A9E08A
:10259000BA2EB20EF40180819181A281B3818D01A6
:1025A000035E1F4FC480D580E680F7806701FF245B
:1025B000D7FCF094EF2CC4010E94581D4A2DAA0CA0
:1025C000550B3A01601A710A2B2DBB0C330B869503
:1025D00090E0C80ED91E29014C185D0861147104E1
:1025E00009F43FC0C201550CAA0BBB0BDC019927B3
:1025F00088276C017D01FF0CCC08DC2C76019C0146
:10260000AD016C2D7C2D8C2D9C2D00E10E94FB36A4
:102610006301770CEE08FF088601FF24EE245701C2
:102620006801DD0CAA08BA2C6501AA86BB86CC8697
:10263000DD8657016801EA84FE2C0E2D1E2D0E94B6
:102640002636F22FE32F8F2F9E2FA42FB52FB7FF03
:102650000CC0B095A095909581959F4FAF4FBF4FFF
:1026600004C080E090E0A7EEB3E014145CF116140F
:1026700074F4AC01BD014150510961097109473041
:102680005A466105710508F059C082E073C06620A2
:1026900071F0AC01BD014150510961097109473028
:1026A0005A466105710508F058C096E071C08B5F0D
:1026B0009946A240B10985309649A44EB340C0F571
:1026C0001F8267C0161474F4AC01BD01415051095A
:1026D0006109710947305A466105710598F4B2E005
:1026E000BF8357C06620C9F0AC01BD0141505109FC
:1026F0006109710947305A4661057105E8F5E6E060
:10270000EF8347C0AC01BD0149505A4661097109C8
:10271000413F5F4F61407105E0F18B5F9946A240F8
:10272000B10986309649A44EB34028F424E013C082
:10273000A9E0AF832EC0F9E0FF832BC0AC01BD013F
:1027400049505A4661097109413F5F4F6140710527
:1027500008F0ADCF21E02F831CC0AC01BD01495072
:102760005A4661097109413F5F4F6140710508F0A8
:102770009ECF87E08F830DC0AC01BD0149505A4602
:1027800061097109413F5F4F6140710530F695E085
:102790009F83A885B9858C91BF81B930C9F0B817DE
:1027A000B9F09F81E92FF0E0482F50E09F01241BF2
:1027B000350BB9016D5F7F4F67307105A8F51216B3
:1027C0001306D4F1932F991F9927991F09F04CC034
:1027D000E885F9858083D4014D915D916D917C915F
:1027E000139714964D905D906D907C901797EE85A1
:1027F000FF858081882309F478CEA889B9898C91D6
:10280000811173CE5B01DD24B7FCD094CD2C850102
:10281000C4010E94631D90E08A0D9B1D97FD65CE4B
:10282000003811053CF161CEBF01685F7F4F641B2A
:10283000750B161617068CF4873011F08F5F01C0E8
:1028400080E0482F50E09F01241B350BB9016D5FDC
:102850007F4F6730710508F4B5CF28EF3FEF241B99
:10286000350B2E0F3F1FAECF882311F08150B0CF14
:1028700087E0AECF2301772457FC7094672CD401F6
:102880001B964D915C911C97E885F9853197E08105
:10289000F0E03896CF01880F991FFA01E80FF91F71
:1028A00025913491FC017097E40FF51F45915491E7
:1028B000E12C00E0B201C5010E94361CF1018081CB
:1028C000833031F4A885B985EC91E63009F06CC00D
:1028D000F401818592851816190684F180549109B6
:1028E0009287818782858C3F59F044F1181634F124
:1028F000992781950CF4909590E1980F8C5E05C016
:10290000AE85BF851C9287E193E1F4015385448530
:10291000E52FF42FE80FF11DE80FF11D25913491FB
:10292000E52FF42FE90FF11DE90FF11D45915491A9
:10293000E12C00E0B201C5010E94361CF40182893D
:102940009389181619060CF0D0CD923081F093308F
:1029500011F09130E9F4D4011B968D919C911C9754
:10296000FC01B89625913491FC01B09609C0F401A0
:1029700083859485FC01BA9625913491FC01B29629
:1029800045915491E12C00E0B201C5010E94361C32
:10299000D40152968D919C915397805491405396B7
:1029A0009C938E935297A1CDD4011B964D915C912F
:1029B0001C97F0E03896CF01880F991FFA01E80FB5
:1029C000F91F25913491FC017097E40FF51F459193
:1029D0005491E12C00E0B2016D5F7F4FC501489634
:1029E0000E94361C75CF8F929F92AF92BF92EF924A
:1029F0000F9380913806882309F44AC04091390624
:102A000050913A06052E000C660B770B762F652F3A
:102A1000542F44278091300690913106A0913206C0
:102A2000B0913306841B950BA60BB70B8093300631
:102A300090933106A0933206B0933306CD01BB27A5
:102A400097FDB095AB2F9C01AC01485F5F4F4838B4
:102A50005105C8F440913E0650913F0680903406DF
:102A600090903506A0903606B09037064501BB24FD
:102A700097FCB094AB2CE12C00E02FE237E1B401DD
:102A80000E94361C05C0283F3F4F14F410923806B0
:102A90000F91EF90BF90AF909F908F900895CF923D
:102AA000DF92EF920F93CF93C0918401CC2ED12C63
:102AB000E12C00E021EC36E147EF56E16AE070E0FE
:102AC000C601805591090E94361C29E536E14CE883
:102AD00056E166E070E0C60186970E94361C29E543
:102AE00036E14CE856E16EE070E0C60144970E9482
:102AF000361CCF5FC0938401CF910F91EF90DF9090
:102B0000CF9008958F929F92AF92BF92CF92DF9213
:102B1000EF92FF920F931F93CF93DF93CDB7DEB762
:102B20006E970FB6F894DEBF0FBECDBFD82E8823A8
:102B300049F081E080938301FB01849180938201BD
:102B4000809387018091830191E0980F9093830196
:102B5000FB01E80FF11D6491E62FEF70E093860111
:102B6000607F6093BC05F0E0EE0FFF1FE25CFE4F5C
:102B70000190F081E02D10924806109266061092A6
:102B800084061092A2061092C0061092DE0684906F
:102B900000E4E02E06E0F02E8F010E5F1F4F86E569
:102BA000A82E86E0B82E912C9EE1C92E981409F427
:102BB00070C0F8013197E491E13069F040F0E23003
:102BC00071F0E330D9F449EC55E163E00BC04EE716
:102BD00053E260E007C049E256E161E003C049EF1B
:102BE00055E162E0CE0101960E94BF20FE013196C0
:102BF000D7018C2D01900D928A95E1F7F80184910F
:102C0000E82FF0E0EE0FFF1FE25EFE4F8081918122
:102C1000D7015A969C938E93599758961C921E9260
:102C20005797F8013196E491D5011697EC93F80186
:102C30003296E4911196EC93F8013396E491D50124
:102C4000EC93F8013496E491F50131971082F80184
:102C50003596E491F8013696E491D70119961C92C5
:102C600019971A96EC931A9753961C921E925297A4
:102C7000F5013E9781E08083C7010E94531C939425
:102C8000BEE1EB0EF11C085F1F4FEEE1AE0EB11C72
:102C90008DCF80918201815080938201DD2009F4E3
:102CA00074C08091810190E0FC01E55CFE4F2081C1
:102CB00060910D0170910E01620F711D27FD7A95D3
:102CC00070930E0160930D01FC01E85CFE4F2081C2
:102CD000022E000C330B40910B0150910C01420F5E
:102CE000531F50930C0140930B01409109015091E7
:102CF0000A01240F351F30930A0120930901209106
:102D00000701309108012130F5E23F076CF0FC012A
:102D1000EE0FFF1FEE5CFE4F40815181241B350BEF
:102D2000309308012093070120910501309106019D
:102D3000213047E034076CF0FC01EE0FFF1FE45D2B
:102D4000FE4F40815181241B350B309306012093A7
:102D5000050120910301309104012130A7E03A07D9
:102D60006CF0880F991FFC01EA5DFE4F8081918114
:102D7000281B390B3093040120930301772788EE39
:102D800093E00E940A3660939A016E960FB6F8940B
:102D9000DEBF0FBECDBFDF91CF911F910F91FF908E
:102DA000EF90DF90CF90BF90AF909F908F9008955D
:102DB00090918501E92FF0E09F01220F331FE20F70
:102DC000F31FED5FF94F8E5E8083675F6183406F15
:102DD00042838091AD0581508093AD059F5F9F3008
:102DE00019F09093850102C01092850184E18093CF
:102DF000BB05089580919001E0918E01F0918F01C3
:102E0000882349F0CF01029690938F0180938E0121
:102E1000859194910895CF01029690938F018093AC
:102E20008E01808191810895809188010895603894
:102E30007105D0F440345105B8F4EBE4F7E180E1DA
:102E4000849FD001A0781124A60F4770E40FF11DD4
:102E50008491A256BE4F222319F06C91862B03C099
:102E600080956C9186238C9308950895CF93DF937A
:102E700000D000D000D0CDB7DEB7EEE9F5E080811C
:102E80009181A281B381CD010196282F9A838983F4
:102E900084819581A681B781CD010196482F9C83BD
:102EA0008B8383859485FC0165917491FB0164910A
:102EB0006250FC0185919491FC013196749172509D
:102EC0003A815C8180E090E026960FB6F894DEBFF0
:102ED0000FBECDBFDF91CF910895EEE9F1E0A0E004
:102EE000B8E000800EBC8111012C1197A0FDFDCF30
:102EF0000192B9F70DB408955F926F927F928F920D
:102F00009F92AF92BF92CF92DF92EF92FF920F9378
:102F10001F93CF93DF93EC018B017A01A901461B2C
:102F2000570B57FF03C0519541955109C7018C1BA1
:102F30009D0B97FF03C0919581959109552453945A
:102F40008417950714F0512C0AC09E2D8F2D7901FE
:102F5000292F382F9C2F8D2FE801092F182FEC16C1
:102F6000FD0654F4902F812F8901292F382F9C2F93
:102F70008D2FE701E92EF82E37016C1A7D0A5901D1
:102F8000A01AB10AB7FE03C0B194A194B1086301BD
:102F900077FE03C08FEFC81AD80AD594C7940217DA
:102FA000130714F08FEF01C081E0882E880F990875
:102FB000EC16FD06B4F021E0552019F0AE01B80181
:102FC00002C0A801BE0183E991E00E941717CA1848
:102FD000DB08D7FE04C0080D191DC60CD71C2196AE
:102FE000E7CFDF91CF911F910F91FF90EF90DF908E
:102FF000CF90BF90AF909F908F907F906F905F9099
:1030000008958F929F92AF92BF92CF92DF92EF92EC
:10301000FF920F93CF93DF936B01EC014C01840E71
:10302000911C5B01A20EB11CC815D905ECF4760108
:10303000D7FE10C0E12CF12C0DC0E816F90694F46F
:10304000202FA701BE0183E991E00E9417172FEFFF
:10305000E21AF20AC50121E4A216B10474F380E475
:1030600090E0EBCF2196E0CFDF91CF910F91FF90D1
:10307000EF90DF90CF90BF90AF909F908F9008958A
:103080000F931F93CF93DF93C82FD62F042F10E0F9
:10309000DC1750F06C2F70E021E0A80183E991E08B
:1030A0000E941717CE5FF4CFDF91CF911F910F9140
:1030B0000895CF93DF9300D000D0CDB7DEB7611570
:1030C00071058105910579F09B01AC0169833A8313
:1030D0004B835C830E94973329813A814B815C81C9
:1030E0000E94E93303C060E070E0CB010F900F90C5
:1030F0000F900F90DF91CF910895CF92DF92EF92D2
:10310000FF920F931F93621773078407950784F448
:1031100089019A016B017C01C901B8016C197D0913
:103120008E099F090E9459186C0D7D1D8E1D9F1DD3
:103130001F910F91FF90EF90DF90CF900895CF9265
:10314000DF92EF92FF920F931F93CF93DF930E9432
:10315000FA16811520E8920761F4809171008D7F45
:1031600080937100109291004698479810928D01BB
:103170008BC021E020938D01813020E8920751F42B
:1031800080918B0190918C0190938F0180938E019F
:103190000E94FA1697FD05C02091B405222309F478
:1031A0003FC02091B30521113BC021E02093B5051C
:1031B000EC01DF77209769F481E08093B6054698AB
:1031C0003FE9C32E3FE0D32EE12CF12CCAEFD0E033
:1031D00014C08E0120E030E060E472E48FE090E003
:1031E000A90198010E94E93369017A0181E0C81AB6
:1031F000D108E108F1081092B605E0918901F0913B
:103200008A010995811103C081E08093B605809100
:10321000B5058823B9F18091B605811133C003C08B
:103220001092B505C5CF46992DC0479A0E94FA164F
:10323000009771F09C01DE010E943D34DC01CB015E
:1032400029E0B595A795979587952A95D1F703C05D
:103250008FEF9FEFDC01109290002AE02093910005
:10326000D0929900C09298008093B7059093B805CA
:10327000A093B905B093BA058091710082608093E4
:10328000710002C04798D2CFDF91CF911F910F916B
:10329000FF90EF90DF90CF9008951F920F920FB69E
:1032A0000F9211242F933F934F935F936F937F93CC
:1032B0008F939F93AF93BF93EF93FF938091B70545
:1032C0009091B805A091B905B091BA05892B8A2BC8
:1032D0008B2B81F18091B60581110BC098B180E4F0
:1032E000892788B98091B505882319F088B180585D
:1032F00088B98091B7059091B805A091B905B091B2
:10330000BA05181619061A061B06B4F48091B705FB
:103310009091B805A091B905B091BA050197A1099E
:10332000B1098093B7059093B805A093B905B09300
:10333000BA0502C00E949F18FF91EF91BF91AF9113
:103340009F918F917F916F915F914F913F912F91BD
:103350000F900FBE0F901F9018959C01E1E7F0E0D1
:1033600090819D7F908381E08093900130938F01C5
:1033700020938E0130938C0120938B010C949F1825
:103380006F927F928F929F92AF92BF92CF92DF9275
:10339000EF92FF920F931F93CF93DF9300D000D053
:1033A000CDB7DEB73A014115510509F401C2FA0162
:1033B000F49031965491F2E06F0E711CAF2CB12C49
:1033C000211102C0EE2069F1A52FA695A695A6951C
:1033D000B0E0E1E0F0E0352F377011F4E0E0F0E02C
:1033E000AE0FBF1FAA9EF001AB9EF00DBA9EF00D6E
:1033F0001124A3E08A2EC81003C0EE0FFF1F0AC0DD
:103400000115110539F0EE9ED001EF9EB00D11248B
:103410000A0F1B1F2E9FD0012F9FB00D11246A0E83
:103420007B1E2FEFC21208C00115110519F0CC2424
:10343000C39402C032E0C32EDC01AA0DBB1D1A16D4
:103440001B060CF0B5C1803891050CF0B1C19B0191
:10345000250F311D121613060CF0AAC16034710538
:103460000CF0A6C16114710409F4A2C1362F3770A3
:10347000932EFB0177FD379623E0F595E7952A9586
:10348000E1F72E2F77FF04C0992011F02FEF2E0FB8
:1034900097FF05C0EE27FF27E81BF90B02C0E0E00D
:1034A000F0E0A038B1051CF030E8381B01C03F2D1A
:1034B0003E1B622F022E000C770B2F3F1CF4462F71
:1034C000409501C040E0B1E0A52FA77009F4B0E03D
:1034D000569556955695DB2ED50E6D0D711D69309E
:1034E00071051CF058E0D52ED21AD41A240FDC0135
:1034F00050E82503A00DB11D1124AE0FBF1F4F9D35
:10350000E00DF11D1124A3014E0F5F1F81E090E03B
:103510007C01092C02C0EE0CFF1C0A94E2F783E048
:10352000C81609F404C18C15A8F091E0C91609F475
:10353000B5C0E2E0CE123CC18FEF8E9DB0018F9DF1
:10354000700D1124609570957C836B837C806D2C4D
:10355000620E2BC0FAEFCF1631F09BEF892EC81008
:1035600027C1D20E87C0D20E51C0FA01E00FF11F61
:10357000E491EE9D6001EF9DD00C1124DA82C982A6
:1035800027FD07C0FC01D080ED2DE623CE2AFC01EB
:10359000C082911013C00F5F1F4F0196031728F3CD
:1035A0002F5F4A0D5B1DA058BF4F261509F400C1BF
:1035B000CD0182569E4F00E010E0F0CF27305CF73F
:1035C000FC01E058FF4FC080C7208A80C828C08215
:1035D000E2CFFA01E60FF71FE491EE9D8001EF9D27
:1035E000100D11241A83098327FD04C0FC011081EA
:1035F000012B0083911013C06F5F7F4F01966317FB
:1036000040F32F5F4A0D5B1DA058BF4F2D1509F4E5
:10361000CFC0CD0182569E4F60E070E0F0CF2730E2
:103620005CF78C0100581F4FF801C080FA81CF2A47
:10363000F801C082E1CFFA01E00FF11FE491EE9DA5
:10364000C001EF9D900D11249A83898327FD05C049
:103650008095FB01908189238083911014C00F5FB6
:103660001F4F6F5F7F4F031730F32F5F4A0D5B1DB6
:10367000A058BF4F2D1509F49BC0BD0162567E4F67
:1036800000E010E0F0CF273054F7FB01E058FF4F87
:103690008A818095908189238083E1CF0E0F1F1F3F
:1036A0008D2C820E281509F483C0CD0182569E4FC1
:1036B0006C0160E070E0631790F5F801E60FF71F0A
:1036C000E491EE9DC001EF9D900D112480959095A1
:1036D0009C838B83FA01E60FF71FE491EE9D300186
:1036E000EF9D700C11247A82698227FD05C0F601D6
:1036F00090818923682A6082992059F027304CF400
:10370000F601E058FF4F90818C8189239A81892BA3
:1037100080836F5F7F4FFFEFCF1ADF0ACCCF2F5F21
:103720004A0D5B1D0A0D1B1DA058BF4FBBCF832F39
:1037300090E0E40FF51FA256BE4F60E870E0681BF2
:10374000790BA81AB90A8501000F111F5D2D832E70
:10375000CF93DF93ED01EF96EF962296A590C5905B
:10376000992059F0AE9C5001CE9C600127302CF47A
:10377000F880D094FD20FB28F99222233AF0FC90A7
:10378000C094FC20FA28FD920C94C71B11963A9520
:1037900029F75A9551F0382D23951124E00FF11D8A
:1037A000A60FB11DC60FD11DD9CFDF91CF91112426
:1037B0000F900F900F900F90DF91CF911F910F916D
:1037C000FF90EF90DF90CF90BF90AF909F908F9041
:1037D0007F906F900895CF92EF920F931F933AEFDF
:1037E000C32EE12C00E010E00E94C0191F910F9140
:1037F000EF90CF900895CF92EF920F931F9332E006
:10380000C32EE12C00E010E00E94C0191F910F911F
:10381000EF90CF9008950F931F93CF93DF93042FD2
:10382000D22F90E020E0AB01BC018BE790E00E943A
:10383000FB1BD53030F480919101909192010F974C
:1038400080F0C0E010E0CD1760F4B8016C0F711D7E
:103850009B0140E850E08BE790E00E947C17CE5F30
:10386000F2CFDF91CF911F910F910895CF92EF92F8
:103870000F931F93F901202FCC24C3948F010E9432
:10388000C0191F910F91EF90CF900895BC0180E077
:1038900090E00C94D6208FB18095807F669B8860E5
:1038A0001C9B84600895CF92DF92EF92FF920F935A
:1038B0001F93CF93DF93EC018885882309F4EFC031
:1038C0008E89882311F081508E8B8E898111E7C0FB
:1038D0002B8D2111AAC0498D5A8DEF88F88CF701E4
:1038E0003296E40FF51F0491FA01EE0DFF1D84914D
:1038F00097012F5F3F4FFA01E20FF31F14919D894B
:10390000292F207FC22EE82F09F0E1959F70D92E34
:1039100009F01195013809F486C0083008F051C04B
:103920006889062E000C770B6E0F711DE7FD7A95E6
:10393000072E000C880B990B0E94F13420E030E038
:1039400040E852E40E944D3420E030E040E857E483
:103950000E947D350E94B934688379838A839B8372
:103960006989062E000C770B610F711D17FD7A9582
:10397000072E000C880B990B0E94F13420E030E0F8
:1039800040E052E40E944D3420E030E040E857E44B
:103990000E947D350E94B9346C837D838E839F8322
:1039A0008D85833019F486E08E8701C00E87CC2088
:1039B00009F468C0EE85D1106CC0F0E0E459FE4F08
:1039C0006BC0EC8F1D8F8E2FEE0F990BAA0BBB0BCC
:1039D000DC0199278827488159816A817B81840F7E
:1039E000951FA61FB71F88839983AA83BB83812F46
:1039F000110F990BAA0BBB0BDC01992788274C816F
:103A00005D816E817F81840F951FA61FB71F8C83F8
:103A10009D83AE83BF8301500B8F83E0E80EF11CC2
:103A2000F88EEF8A3CC018863AC08C8D082E000CA8
:103A3000990BAA0BBB0BDC01992788274881598178
:103A40006A817B81840F951FA61FB71F8883998386
:103A5000AA83BB838D8D082E000C990BAA0BBB0B80
:103A6000DC01992788274C815D816E817F81840FDD
:103A7000951FA61FB71F8C839D83AE83BF832150E4
:103A80002B8F0DC0DD2049F2EE85F0E0EC59FE4FA2
:103A900003C0F0E0E45AFE4F80818E87BECFDF91F5
:103AA000CF911F910F91FF90EF90DF90CF900895ED
:103AB000DC011B96ED91FC911C973E9685919491AB
:103AC000FC0184910895DC011B96ED91FC911C97FB
:103AD0003C9685919491FC01849108959F92AF92B8
:103AE000BF92CF92DF92EF92FF920F931F93CF93EB
:103AF000DF93982E9DEBE92E95E0F92E2FEBC22E49
:103B000025E0D22EE601870135E0A32EB12CE98114
:103B10004E2F50E04930510508F045C0FA01EF58EA
:103B2000FF4F0C941E368091960190919701B5013C
:103B30000E94F635892BB9F1688170E020E048E8F1
:103B40005BE12CC08091960190919701B5010E9494
:103B5000F635892B41F1688170E020E044E75BE1B4
:103B60001DC0688170E020E04AE55BE117C0688114
:103B700070E020E04EE35BE111C0688170E020E07E
:103B800046ED5AE10BC0688170E020E048E95AE157
:103B900005C0688170E020E04AE25AE1F8018081C6
:103BA00091810E94EB1B0C5F1F4FFFEFAF1ABF0A02
:103BB000249629E0A216B10409F0A9CF8091E4056A
:103BC000882379F06091E205062E000C770B209196
:103BD000E30548EF58E18091E0059091E1050E94EE
:103BE000FB1B8091DF05882379F06091DD05062EAF
:103BF000000C770B2091DE0546EC57E18091DB0548
:103C00009091DC050E94FB1B911058C1C0ECD5E0DF
:103C1000B12C02EA10E0AA24A39485E3982EF701C0
:103C2000808191810197863AFFEF9F0724F0F70189
:103C300091838083D7C0F70111830083BB2019F0E3
:103C40003197808102C08091CC058430B8F4809196
:103C5000BC05882349F026E030E040E050E062E017
:103C600070E080E090E007C029E030E040E050E004
:103C700060E070E0CB010E947D1806C066E070E055
:103C800080E090E00E945918643088F06630E8F5D2
:103C9000688360E470E080E090E00E945918DC01E5
:103CA000CB014097A109B109F60180839BC06883CD
:103CB0008091DF05882361F02091DD05022E000C44
:103CC000330B28513109032E000C440B550B04C053
:103CD00028E230E040E050E08091E405882361F084
:103CE0006091E205062E000C770B685E7F4F072E71
:103CF000000C880B990B04C064E070E080E090E059
:103D00000E947D18F60160836DC068838091DF0595
:103D1000882361F02091DD05022E000C330B265222
:103D20003109032E000C440B550B04C020E330E096
:103D300040E050E08091E405882361F06091E20565
:103D4000062E000C770B685E7F4F072E000C880B49
:103D5000990B04C06AEF7FEF8FEF9FEF0E947D18F1
:103D6000F60160838091E40581111CC062E370E07C
:103D700080E090E00E945918A092E405DC01CB019C
:103D800088539F4FAF4FBF4F9093E1058093E0055D
:103D90001092E20562E070E080E090E00E94591825
:103DA0006093E3058091DF0581111CC062E370E040
:103DB00080E090E00E945918A092DF05DC01CB0161
:103DC00088539F4FAF4FBF4F9093DC058093DB0527
:103DD0009092DD0562E070E080E090E00E9459186A
:103DE0006093DE05B394F4E0EF0EF11C24E0C20E04
:103DF000D11C249684E0B81212CF8091E405882368
:103E000079F08091E0059091E10501979093E105AB
:103E10008093E005863A9F4F04F51092E4051DC09B
:103E200068E270E080E090E00E945918672B682BF0
:103E3000692B99F481E08093E40582EA90E0909305
:103E4000E1058093E0051092E20562E070E080E019
:103E500090E00E9459186093E3058091DF05882364
:103E600079F08091DB059091DC0501979093DC055A
:103E70008093DB05863A9F4F0CF51092DF051EC03C
:103E800068E270E080E090E00E945918672B682B90
:103E9000692BA1F481E08093DF0582EA90E09093A2
:103EA000DC058093DB0585E38093DD0562E070E04F
:103EB00080E090E00E9459186093DE05DF91CF9179
:103EC0001F910F91FF90EF90DF90CF90BF90AF9038
:103ED0009F9008956F927F928F929F92AF92BF9220
:103EE000CF92DF92EF920F931F93CF93DF9300D087
:103EF00000D0CDB7DEB780919101909192010196EB
:103F00008F31910528F4909392018093910104C020
:103F100010929201109291018091BB05882319F0B3
:103F200081508093BB05B090AB051091AC0500E0CB
:103F300020E448E060E070E088E790E00E9401182B
:103F400020E430E049E750E060E070E089E790E08D
:103F50000E947C1719821A821B821C82CE01019654
:103F60006C01FC014AE0842E912C24E0280F8B2D5B
:103F7000912FB4010E94F6358193B62E172F2E1380
:103F8000F6CF1FE0F60101916F01612F70E0E12C87
:103F90002DE837E142E957E18BE790E00E94361CBB
:103FA00015501B3F79F78091A7059091A80597FDC3
:103FB00002C0292F01C020E04EE166E877E187E1E9
:103FC0000E940B1C8091AE059091AF0597FD02C039
:103FD000292F01C020E043E36FE777E18EE20E94E2
:103FE0000B1C8091BB05882309F468C01091AD05B6
:103FF00080919E0590919F05A091A005B091A1058B
:10400000CD01BB2797FDB095AB2F4091A2055091F4
:10401000A3056091A4057091A505AB01772757FD15
:104020007095672F20910F01473028F4222351F01B
:1040300010920F0107C04B3228F0211103C021E07C
:1040400020930F0120910F01211102C023E101C033
:104050002AEF55276A01C20ED11C27FDDA945C01B4
:10406000BB24E12C00E02BE537E14CE657E1B6013B
:10407000C5010E94361C113130F48091910190915C
:1040800092010F97D8F0612C712C812E912CF2E0C7
:10409000CF0ED11C681479048CF4E12C00E023E5E8
:1040A00037E146E557E1B601C5010E94361C8AE0BA
:1040B000680E711C92E0A90EB11CECCF0F900F900E
:1040C0000F900F90DF91CF911F910F91EF90DF90A4
:1040D000CF90BF90AF909F908F907F906F900895FA
:1040E000A2E0B7E02FB7F8947D918D919C9166B5D1
:1040F0002FBFA89B05C06F3F18F47F5F8F4F9F4F66
:1041000022E0660F771F881F991F2A95D1F708951F
:104110000F931F93CF93DF9300D000D000D0CDB783
:10412000DEB78C01FC0180819181A281B381CD0138
:1041300001969A83898384819581A681B781CD0177
:1041400001969C838B83C8010E94631D82508D83DE
:10415000C8010E94581D7EEF780F29813A814B815A
:104160005C816D8180E090E026960FB6F894DEBF0A
:104170000FBECDBFDF91CF911F910F910895FC012C
:104180001082118212821382148215821682178283
:104190001286118654874387138A128A6587108690
:1041A00083E0848B138E86E087870895AB01FC0142
:1041B0000E94702041505109E109F10928F068512D
:1041C0007C4F8F4F9F4FF6CFAB01FC010E947020B8
:1041D000641775078E079F07C8F308950F930FB7ED
:1041E0000F931F9211248F939F93EF93FF93E9EF07
:1041F000F6E08091010791E08D5F8D3710F08D57CB
:104200009395809301078081890F80839181911D0F
:1042100091830281011D02838381811D838309278C
:104220000F70092702950093000735D08111009384
:10423000FE06803989F40091FF06901B963070F0DD
:1042400087E7809300088093010888E198E08093D5
:10425000600090936000FFCF9093FF068091FD0671
:10426000815018F08093FD0659F3E2E0F7E0808179
:10427000918101968083918382819381811D911D1B
:1042800082839383FF91EF919F918F911F900F9164
:104290000FBF0F9118958FB18095807F669B8860C6
:1042A0001C9B84600895EF920F93CF93DF93C0E03F
:1042B000D0E0FE01E354FA4F8381843061F46281DF
:1042C00070E0E12C00E02CED32E24DE153E2808120
:1042D00091810E94361C2496C031D10551F7DF919F
:1042E000CF910F91EF900895EF920F93CF93DF93BB
:1042F000C0E0D0E0FE01E354FA4F8381853061F4E1
:10430000628170E0E12C00E02CED32E24DE153E2FD
:10431000808191810E94361C2496C031D10551F7CD
:10432000DF91CF910F91EF9008950F931F93CF934B
:10433000DF93CDB7DEB728970FB6F894DEBF0FBE78
:10434000CDBF95E0899F80011124C8018F529F4FF6
:104350000E94A533282FC8018E529F4F28870E94A4
:10436000A533382FC8018D529F4F3F830E94A5333C
:10437000482FC8018C529F4F4E830E94AD33582F57
:10438000692F28853F814E8170E080E090E028967B
:104390000FB6F894DEBF0FBECDBFDF91CF911F9156
:1043A0000F910895EF92FF920F931F93CF93182FC1
:1043B00088EC90E00E94A533C82F89EC90E00E9421
:1043C000A533111104C0C43311F4833381F164E3C4
:1043D00088EC90E00E94B33363E389EC90E00E94A4
:1043E000B33360E080ED90E00E94B33301ED10E064
:1043F0008AE0E82EF12CC0E06C2FC8010E94B33394
:104400006C2FC80101960E94B3336C2FC80102962D
:104410000E94B333B701C80103960E94C53382E0FE
:10442000E81AF108CF5F0B5F1F4FC53029F7CF9116
:104430001F910F91FF90EF900895CDB7DEB7AE9723
:10444000DEBFCDBF11E01093E0001092E2001092A9
:10445000E10080E28093D8001092D700809165003F
:10446000806880936500789483E084BD83E085BD97
:1044700010936E00E1E8F0E083E08083E0E881E003
:104480008083E3EC81E08083E2EC81E08083EAE7F3
:1044900087E0808380688083559A209A5D9A289A65
:1044A0008C9A84988AE090E00E94461C7C990EC009
:1044B000F89487E78093000880930108A89588E125
:1044C0008093600088E080936000FFCF80E00E94CE
:1044D000D22181EC80937C0085B1806F85B984B155
:1044E000877E84B984B1876E84B95E9A5F988AB1F9
:1044F000806D8AB9769A6E9881B3806F81BB8998F6
:1045000080B38D7080BB80E58CBD1DBD85E090E0E3
:104510000E94461C5F9A85E090E00E94461C5E98CF
:104520005C98E0E4F1E08DE08E0F94919EBD000078
:104530000DB407FEFDCF31968E13F7CF5C9A81E85C
:1045400080936400809165008160809365000E9483
:104550004B1C87FF24C05C9885EA8EBD00000DB41B
:1045600007FEFDCF5C9A2E982F982D9880916400BD
:1045700080628093640081E083BF889513BEFCCF86
:104580002D980E944B1C8478843871F00E944B1C3B
:104590008471843129F188EC90E00E94461C0E94CD
:1045A0004B1C82FDEDCF38C02D9A88EC90E00E9424
:1045B000461C2F9882E090E00E94A5338F3F29F09F
:1045C0006FEF82E090E00E94CB3384EF91E00E9495
:1045D000461C2F9A0E944B1C84788438D9F3D6CF7E
:1045E0002D9A88EC90E00E94461C2E9882E090E084
:1045F0000E94A533882329F060E082E090E00E94C9
:10460000CB3384EF91E00E94461C2E9A0E944B1CF3
:1046100084718431D9F3BFCF2D9A82E090E00E945B
:10462000A533882331F03E9A3F9A81E08093880138
:1046300004C0109288013E983F988DE790E09093D7
:104640000C0180930B018CE291E090930A0180931E
:10465000090180E09BE4909308018093070180E0CA
:104660009EE090930601809305019093040180934E
:10467000030182E390E090930E0180930D0180EDA1
:1046800090E00E94A5338093810184E180939A0198
:10469000809164008E7F8093640080917A008064B2
:1046A00080937A0080917A0086FDFCCF009178009B
:1046B000109179000E94702020E030E098011127CD
:1046C0000027600F711F821F931F611571058105FF
:1046D000910511F00E949C33809164008160809369
:1046E00064009E012F5F3F4F190134E0320D3DA75A
:1046F00046E0420D4CA731E08FB7F8944091F9069F
:104700005091FA066091FB067091FC068FBF809174
:104710009B01942F981B80919C01882329F09093F2
:104720009D0110929C01E8CF20919A01921738F4D4
:104730009F5F921708F733BF889513BEDDCF91E0D6
:1047400090939C0140939B01209196013091970199
:104750002F5F3F4F3093970120939601EEE9F1E0F0
:1047600081118FEF0024819381938193819303942E
:10477000D1F780919801809399010E944B1C8093FE
:104780009801E09180018E2F90E08A30910510F021
:104790000C94BC2BFC01EA5AFF4F0C941E3610926D
:1047A0007E011092830110927D0111E0109380012F
:1047B00081E59EE00E94AD191092AC051092AB0508
:1047C0001092B10580E09EE09093AF058093AE0516
:1047D0009093A8058093A7052BE42093AD05109234
:1047E000B0051093A60540E050E061E070E0409312
:1047F0009E0550939F056093A0057093A10540E02E
:1048000050E068E170E04093A2055093A3056093E7
:10481000A4057093A5052DE730E030930C0120939B
:104820000B012CE231E030930A012093090120E0D2
:104830003BE4309308012093070190930601809395
:104840000501909304018093030182E390E090932B
:104850000E0180930D0184E180939A0120E047E5E9
:104860005DE063E170E085E090E00E94FB1B20E0EA
:1048700049EE5CE063E170E087E490E00E94FB1B9E
:1048800020E047EE5BE06EEF7FEF80E090E00E947B
:10489000FB1B20E045EE5AE062E370E080E090E030
:1048A0000E94FB1B10917D01812F82958695877058
:1048B00021F0843008F052C00AC020E044EC5AE0F5
:1048C00066E270E083E590E00E94FB1B47C0812F09
:1048D000887190E043E0959587954A95E1F781309E
:1048E00029F0823029F460E332E204C062E301C0BF
:1048F00060E334E2012F077070E020E04DEB5AE0F6
:104900008EE590E03EA70E94EB1B3EA5632F70E072
:1049100020E046EB5AE08EE590E00E94EB1B20E0A1
:1049200043EA5AE067E270E085E590E00E94FB1BF5
:1049300020918101255E41E15AE068E270E08AE65B
:1049400090E00E94FB1B002349F00150812F887FDB
:10495000802B011101C0807E80937D01009199011F
:10496000009580919801082310917D01129516956C
:10497000177007FF20C0113091F020F01230D9F4E9
:1049800087E70EC08091810190E0019635E0880FA5
:10499000991F3A95E1F7876080937D010CC087E508
:1049A00080937D01609181016F5F6093810180ED53
:1049B00090E00E94B33304FF21C0123089F013301D
:1049C00089F011111BC08091810190E0019625E0D2
:1049D000880F991F2A95E1F7876080937D010EC0AB
:1049E0008FE201C08FE480937D016091810161506D
:1049F0006093810180ED90E00E94B33302FF08C014
:104A0000112319F010927D0103C086E0809380018C
:104A100003FFB2C682E08093800110927E01ACC693
:104A20001092480610926606109284061092A20612
:104A30001092C0061092DE06E5E0F6E080818F70ED
:104A40008083339656E0E233F507C1F7E7EEF5E0F1
:104A500080818F708083339686E0E530F807C1F758
:104A600080E890E09093BE058093BD05B4E1FB2EF5
:104A7000F092BF0581E08093C00526EB30E03093D3
:104A8000C2052093C10599E19093C30592E09093EC
:104A9000C4052CEE30E03093C6052093C5059EE199
:104AA0009093C70513E0E12EE092C80522E231E0C1
:104AB0003093CA052093C90593E29093CB051092D9
:104AC000CC051092B10500E01EE01093AF050093F5
:104AD000AE051093A8050093A7059BE49093AD0540
:104AE0001092B0058093A60580E090E0A1E0B0E0D0
:104AF00080939E0590939F05A093A005B093A10578
:104B000080E090E0A8E1B0E08093A2059093A30537
:104B1000A093A405B093A505109238068BE699E002
:104B20000E94AD1980E580938401E09280018DE7B9
:104B300090E090930C0180930B018CE291E09093B4
:104B40000A018093090180E09BE49093080180931F
:104B500007011093060100930501109304010093CF
:104B6000030182E390E090930E0180930D01F09297
:104B70009A018091960181700E946E1D809184013E
:104B80008035B0F48230D8F4813009F058C080917B
:104B90007E0165E00E94EA35E92FF0E0EE0FFF1F8D
:104BA000EC5EFE4F6081718181E00E94821542C0FF
:104BB000803509F044C01092E4051092DF0520E032
:104BC00040E459E06EE170E08DE190E00E94FB1B53
:104BD00080917E0190E001966AE070E00E94F635D7
:104BE0008983CB016AE070E00E94F6358A83CB01AD
:104BF0006AE070E00E94F6358B83710109E510E0F0
:104C0000D7012D917D01265E41E15AE06FE170E010
:104C1000C8010E94EB1B065011090734110581F7EA
:104C20004AE16EE58AE10E94401849E26EE58AE1B8
:104C30000E944018809184018150809384012091CA
:104C4000AE053091AF051216130694F58091A705B5
:104C50009091A805181619065CF58091B005811190
:104C600027C09091980180919901809589232250C5
:104C700031093093AF052093AE052F3F3F4F21F40C
:104C80001092AF051092AE0597FD95C694FDC4C66F
:104C900095FDF3C696FD0DC782FF03C098E0909383
:104CA000B00583FD22C780918401882309F461C780
:104CB000F5E0AF2EF6E0BF2EA3E08A2EA6E09A2EF6
:104CC000D5012C912F70622F70E0FB01E453F94F56
:104CD000E491D4018C918E0F8C93D501FB01EC53A0
:104CE000F94F64919E91690F6C93893710F4613488
:104CF00010F0F5012083D5019C91907F79F070E050
:104D00006150710990E0E3E0CE2EE12C00E010E06C
:104D100020E044EE56E001970E94C019B3E0AB0ECC
:104D2000B11CE3E08E0E911CF0E38F16F6E09F06B7
:104D300009F0C6CF65EE862E65E0962E77EEA72E9B
:104D400075E0B72ED5012C912F70622F70E0FB011A
:104D5000E452F94FE491EE0FD4018C918E0F8C93B5
:104D6000D501FB01EC52F94F6491660F9E91690FDA
:104D70006C93893710F0F5012083613420F0D50160
:104D80009C919F709C93F5019081907F79F070E0E9
:104D90006150710990E053E0C52EE12C00E010E075
:104DA00020E044EE56E001970E94C019F3E08F0E18
:104DB000911C23E0A20EB11C33E0831636E093066B
:104DC00009F0C0CF81E00E9422120E94F3140E94D9
:104DD000742180E00E9422126091960170919701E7
:104DE00080909E0590909F05A090A005B090A10591
:104DF0004501BB2497FCB094AB2C4090A205509089
:104E0000A3056090A4057090A505C401429682395F
:104E1000910508F08EC02301772457FC7094672C0D
:104E20008091AE059091AF05181619062CF54091AA
:104E3000A7055091A80541158BEF5807ECF080911C
:104E4000B005982F969596959695292F30E0F90103
:104E5000EA53F84FC490EFEFE90FE73018F48F5F93
:104E60008093B0058091B005803411F41092B005A4
:104E700041305D4F0CF09CC48091A7059091A8052E
:104E8000181619060CF443C00C979093A80580934C
:104E9000A705292F892F990F990B121614F4019742
:104EA00002C0809590952C3F3CF42A3F24F5263F84
:104EB00071F51092A6052BC02F3F09F044F54091E3
:104EC000A9055091AA05FC01FF277496CF01880F10
:104ED000991FFA01E80FF91F25913491FC013897C9
:104EE000E40FF51F45915491E12C00E0B201C4019B
:104EF0000E94361C0CC0E091A905F091AA05B69657
:104F00004591549120E0B201C4010E94EB1B209115
:104F1000AE053091AF05121613065CF08091A7051F
:104F20009091A805181619060CF495C402C01092A9
:104F3000A6050E9453210E946A1F8091840181115D
:104F400028C08091A7059091A805181619060CF5A0
:104F500080E090E0FC01E05CF94F2085211119C050
:104F60004E96843B9105B1F79091820180917E012C
:104F7000992309F4BCC465E00E94EA35E92FF0E00A
:104F8000EE0FFF1FEC5EFE4F6081718180E00E949A
:104F900082158091A7059091A805181619063CF472
:104FA0008091AE059091AF051816190644F08091D6
:104FB0008D01811104C08EEC97E00E94AD198091A3
:104FC000A6058111D9C385E0F3C4809181018111C7
:104FD00005C080917E018E3161F406C0813049F4B4
:104FE00080917E018C3329F485E08093800111E06B
:104FF00001C010E084ED90E00E94AD33782EE92EE0
:10500000A090AB05B090AC0543E065E484E00E945D
:10501000401840E265E484E00E944018F09080016E
:10502000F4E020E0FF1207C043EC54E068E070E0D9
:1050300085E090E00BC0112319F04DE054E002C070
:1050400041E553E068E070E086E090E00E94FB1BE1
:1050500020E045EE5AE060E370E080E090E00E94DE
:10506000FB1BA5E0CA2EFC1459F020E04EEB55E0E6
:1050700065E070E084E590E00E94FB1B0CE101C05C
:1050800003E010E020E046EA55E0B8018AE590E050
:105090000E94FB1B19821A821B821C828091AB0525
:1050A0009091AC054101F10124E0220D6AE070E02D
:1050B0000E94F6358193CB012E13F8CFFCE6CF2E5C
:1050C000D12C065F1F4FD4012D914D01265E41E189
:1050D0005AE0B801C6010E94EB1BB6E0CB1AD1081A
:1050E000E4E5CE16D10479F7F5E0FF1231C0072DC3
:1050F0001E2D0A151B0508F4850119821A821B82D0
:105100001C8220E04FE755E06BE170E082E590E023
:105110000E94FB1B6101F101C8016AE070E00E947E
:10512000F63581938B01ADA4AE12F6CF0CE610E0FC
:10513000D6012D916D01265E41E15AE065E270E0F5
:10514000C8010E94EB1B065011090435110581F7B7
:1051500080918401823D10F40E944F1520E044ECC0
:105160005AE066E270E087E190E00E94FB1B8091CC
:10517000990180959091980189238870B4E0FB1281
:1051800004C009F4F9C282E013C4811110C4F4C24E
:105190001092840187E08093800120E049EE52E084
:1051A0006AE070E08BE090E00E94FB1B08E010E0FA
:1051B00020E042EE52E066E170E0C8010E94FB1B75
:1051C000035F1F4F0934110599F720E045EE5AE0BF
:1051D00060E370E080E090E00E94FB1B43E065E448
:1051E00084E00E94401840E265E484E00E94401898
:1051F00020E04AEC52E063E070E08BE490E00E9433
:10520000FB1B20E04FEA52E066E070E08BE590E0A7
:105210000E94FB1B20E047E952E061E170E08BE473
:1052200090E00E94FB1B20E04AE752E067E170E05B
:105230008BE590E00E94FB1B20E042E652E063E237
:1052400070E08BE490E00E94FB1B20E04EE352E014
:1052500068E270E08BE590E00E94FB1B20E044ECEC
:105260005AE066E270E087E190E00E94FB1B8091CB
:105270008401823D10F40E944F158091990183FDB5
:105280007BC28091980183FF77C28BC38FEF80939D
:10529000F4061092F5061092F6061092F706109298
:1052A000F806C090AB05D090AC0510E0812F0E94AD
:1052B000952129833A834B835C836D838C819D8107
:1052C0008C159D0528F4E8EEEE2EF12C04E005C0C7
:1052D0001F5F153059F71FEF3FC0101708F5015039
:1052E000802F0E94952129833A834B835C836D83B1
:1052F000622FC70103970E94B3336A81C7010297E7
:105300000E94B3336B81C70101970E94B3336C8154
:105310007D81C7010E94C533E5E0EE1AF108DDCFBB
:10532000F5E01F9F7001112460E0C7018F529F4F6D
:105330000E94B33360E0C7018E529F4F0E94B33387
:1053400060E0C7018D529F4F0E94B333B601C70181
:105350008C529F4F0E94C5331093F40689E08093CE
:10536000800120E048E851E067E070E084E090E0F0
:105370000E94FB1B20E045EE5AE060E370E080E015
:1053800090E00E94FB1B43E063E482E00E9440182F
:1053900040E263E482E00E94401820E041E751E0EF
:1053A00068E270E086E090E00E94FB1B20E041E7AD
:1053B00051E068E270E088E290E00E94FB1B20E090
:1053C0004DE451E06FE170E089E190E00E94FB1B49
:1053D00004E010E0B12C76E0A72E8B2D0E949521E1
:1053E000298F3A8F4B8F5C8F6D8F41E15AE0B80166
:1053F0008CE490E00E94FB1B2A8D41E15AE0B80149
:1054000082E590E00E94FB1B2B8D41E15AE0B80140
:1054100088E590E00E94FB1BD101EA2D1D92EA95E0
:10542000E9F78C8D9D8D6101F1016AE070E00E94C9
:10543000F6358193CB012CA52E13F7CF6BE7E62E23
:10544000F12CD6012D916D01265E41E15AE0B801A3
:10545000C7010E94EB1BB5E0EB1AF108EDE5EE1673
:10546000F10479F7B394075F1F4FF5E0BF12B5CF92
:105470006091F4066F3F09F405C180917B018F5F55
:105480008F3118F480937B0102C010927B018091D0
:10549000F50629E0629FB001112481111FC06D5FE4
:1054A0007F4F01E028E046E08BE490E00E94011885
:1054B0006091F40639E0639FB00111246C5F7F4F67
:1054C0005BEFC52EE12C00E010E02091F60641E1F3
:1054D0005AE08CE490E00E94C0190AC06C5F7F4FD4
:1054E0002091F60641E15AE08CE490E00E94FB1B1B
:1054F0008091F5066091F406813019F549E0649FCA
:10550000B00111246D5F7F4F01E028E046E081E5A6
:1055100090E00E9401186091F40659E0659FB00187
:1055200011246C5F7F4F4BEFC42EE12C00E010E0A4
:105530002091F70641E15AE082E590E00E94C0190F
:105540000EC089E0689FB00111246C5F7F4F2091ED
:10555000F70641E15AE082E590E00E94FB1B809152
:10556000F5066091F406823019F599E0699FB00163
:1055700011246D5F7F4F01E028E046E087E590E071
:105580000E9401186091F406A9E06A9FB0011124FD
:105590006C5F7F4F3BEFC32EE12C00E010E02091C9
:1055A000F80641E15AE088E590E00E94C0190EC07B
:1055B000B9E06B9FB00111246C5F7F4F2091F8061A
:1055C00041E15AE088E590E00E94FB1B809199013F
:1055D00080959091980189239091F50684FF10C0E1
:1055E000292F30E0F901EC50F94F4281442319F0A2
:1055F0004150428305C049E1428387FF12C00DC07C
:1056000087FF0FC0292F30E0F901EC50F94F42819C
:10561000493118F44F5F428304C0F901EC50F94F4F
:10562000128285FF05C0992319F091509093F506D9
:1056300086FF07C09091F506923018F49F5F909313
:10564000F50683FF99C00091F406E5E00E9F800106
:1056500011246091F606C8018F529F4F0E94B33308
:105660006091F706C8018E529F4F0E94B33360913C
:10567000F806C8018D529F4F0E94B3338FEF80937D
:10568000F4067AC09091980180917A0197FF52C0F8
:1056900094FF50C08F5F80937A01853108F459C020
:1056A0008D33C0F18D3309F054C010927A0183E834
:1056B00084BD67BD81EF80938000109288001092B6
:1056C0008A0081E00E94D221809171008D7F8093B9
:1056D0007100109290018DEC95E090938F01809372
:1056E0008E0190938C0180938B0187E194E09093DD
:1056F000CE058093CD0584E690E09093D00580930D
:10570000CF0580E090E89093D2058093D1050E9468
:105710009F1832C020E430E0281B3109220F83E8B3
:1057200084BD67BD81EF8093800010928800209334
:105730008A000FC0882369F083E884BD8FEF87BD9E
:1057400081EF809380001092880010928A0010925E
:105750007A0180919901809598239C7069F083E883
:1057600084BD8FEF87BD81EF809380001092880009
:1057700010928A001092800180E00E946D17809143
:105780007F01882311F40C947B23815080937F0147
:1057900081110C94782383E884BD8FEF87BD81EF5E
:1057A000809380001092880010928A000C947823D5
:1057B000C80C0C2C000CDD08911115C04091B205ED
:1057C000842F042E000C990B97FF03C091958195AF
:1057D000910984301CF5CB0166E070E00E94F6353B
:1057E00001E0049708F400E08091A9059091AA05D2
:1057F000F9013896AF01440F551FFC01E40FF51F66
:1058000025913491FA017097E80FF91F4591549151
:10581000E12CB201C6010E94361C2ECB01E0141609
:105820000CF400E0E02E2CEE36E048E557E0B20143
:10583000C6010E94361C8091B20587FF03C08F5FAE
:105840008093B2058091B20518160CF015CB8150EB
:105850008093B20511CB2C5031093093AF052093C2
:10586000AE05932F97FD9195492F50E04131510599
:1058700008F05FCBFA01E05AFF4F0C941E36A6E009
:1058800003C0ABE001C0AEE0A80D99E081E013C019
:10589000A4E1A80D9EE086E00EC09924882D831B0C
:1058A000A2E1A80F84E1890F985E05C0A4E1A80DCC
:1058B00088E0890F945F5091A9054091AA05E52FD2
:1058C000F42FE90FF11DE90FF11D25913491E52F1A
:1058D000F42FE80FF11DE80FF11D45915491E12CD3
:1058E00000E0B2018A2F90E00E94361C22CB8F5F2D
:1058F00080937E0188E2809384018CE898E00E9486
:10590000AD1984E080938001C12CD12C16E00C2DC0
:10591000E0E8CE16D10409F43CCB8C2D81700E94B6
:105920006E1D0E94F3140E94742180E00E942212D6
:105930008090A2059090A305A090A405B090A50525
:105940004501BB2497FCB094AB2C40909E05509031
:105950009F056090A0057090A105802F612F0E9487
:10596000EA3501E0933008F000E0E12C2CE831E268
:105970004EE652E2B401C601860D971D0E94361C08
:105980000E9453210E946A1F81E00E946D1764E10A
:1059900070E080E090E00E94D620BFEFCB1ADB0AD7
:1059A000B6CF809399010E944B1C8093980188E0A8
:1059B00080938001E1CE4091A2055091A3056091B2
:1059C000A4057091A5054D3CBCEC5B076105710514
:1059D0000CF45CC98A019B010C5C1C4C2109310947
:1059E000041715072607370724F44091B2054F5FC7
:1059F00008C040175107620773072CF44091B205A5
:105A000041504093B2050093A2051093A305209343
:105A1000A4053093A5053AC94091A2055091A3056C
:105A20006091A4057091A50541155105EDE26E0741
:105A300071050CF02DC98A019B01045313432F4FAC
:105A40003F4F041715072607370724F44091B20586
:105A50004F5F08C040175107620773072CF440914D
:105A6000B20541504093B2050093A2051093A305DF
:105A70002093A4053093A5050BC940919E05509134
:105A80009F056091A0057091A1054736F6EE5F076E
:105A9000610571050CF4FEC84656564E6109710940
:105AA00040939E0550939F056093A0057093A105B8
:105AB000F1C840919E0550919F056091A00570919D
:105AC000A1054115510526E6620771050CF0E4C8F1
:105AD000445353436F4F7F4F40939E0550939F0510
